{
  "transactions": [
    {
      "hash": "0x938b9363f757249ede86230004c76ee4db8107d98b700a425589e5802a3c7fdc",
      "transactionType": "CALL",
      "contractName": null,
      "contractAddress": "0x593e5b7f0ecbda634b763eee44dcb3a4cef69d91",
      "function": "createProject(string,string,string,string,uint16)",
      "arguments": [
        "Bitcoin",
        "BTC",
        "Bitcoin is the world\\'s first decentralized digital currency, enabling peer-to-peer transactions. As the pioneer of blockchain technology, Bitcoin features scarcity, decentralization and censorship resistance.",
        "Layer1",
        "7"
      ],
      "transaction": {
        "from": "0xc19973532a44da4fb06fcf53ca5be909fde6788f",
        "to": "0x593e5b7f0ecbda634b763eee44dcb3a4cef69d91",
        "gas": "0xe8bf1",
        "value": "0x0",
        "input": "0x6df92d9a00000000000000000000000000000000000000000000000000000000000000a000000000000000000000000000000000000000000000000000000000000000e00000000000000000000000000000000000000000000000000000000000000120000000000000000000000000000000000000000000000000000000000000022000000000000000000000000000000000000000000000000000000000000000070000000000000000000000000000000000000000000000000000000000000007426974636f696e000000000000000000000000000000000000000000000000000000000000000000000000000000000000000000000000000000000000000003425443000000000000000000000000000000000000000000000000000000000000000000000000000000000000000000000000000000000000000000000000d0426974636f696e2069732074686520776f726c64277320666972737420646563656e7472616c697a6564206469676974616c2063757272656e63792c20656e61626c696e6720706565722d746f2d70656572207472616e73616374696f6e732e204173207468652070696f6e656572206f6620626c6f636b636861696e20746563686e6f6c6f67792c20426974636f696e2066656174757265732073636172636974792c20646563656e7472616c697a6174696f6e20616e642063656e736f727368697020726573697374616e63652e0000000000000000000000000000000000000000000000000000000000000000000000000000000000000000000000064c61796572310000000000000000000000000000000000000000000000000000",
        "nonce": "0xd9",
        "chainId": "0xaa36a7"
      },
      "additionalContracts": [
        {
          "transactionType": "CREATE",
          "address": "0xddc47ecfa3595e8773515e13a5b2264e7c293a7b",
          "initCode": "0x3d602d80600a3d3981f3363d3d373d3d3d363d734f5dfb743f491f18481078806c5a68d6cd099a7c5af43d82803e903d91602b57fd5bf3"
        }
      ],
      "isFixedGasLimit": false
    },
    {
      "hash": "0xe6502b418a0c35a2d5a2f721a0e7ac4ce8c718ecb9aa27ef886c0acd677e634a",
      "transactionType": "CALL",
      "contractName": null,
      "contractAddress": "0x593e5b7f0ecbda634b763eee44dcb3a4cef69d91",
      "function": "createProject(string,string,string,string,uint16)",
      "arguments": [
        "Ethereum",
        "ETH",
        "Ethereum is a decentralized, open-source blockchain platform that supports smart contract functionality. It serves as the foundation for the Web3 ecosystem, providing powerful infrastructure for DeFi, NFTs and dApps.",
        "Layer1",
        "7"
      ],
      "transaction": {
        "from": "0xc19973532a44da4fb06fcf53ca5be909fde6788f",
        "to": "0x593e5b7f0ecbda634b763eee44dcb3a4cef69d91",
        "gas": "0xd677c",
        "value": "0x0",
        "input": "0x6df92d9a00000000000000000000000000000000000000000000000000000000000000a000000000000000000000000000000000000000000000000000000000000000e00000000000000000000000000000000000000000000000000000000000000120000000000000000000000000000000000000000000000000000000000000022000000000000000000000000000000000000000000000000000000000000000070000000000000000000000000000000000000000000000000000000000000008457468657265756d0000000000000000000000000000000000000000000000000000000000000000000000000000000000000000000000000000000000000003455448000000000000000000000000000000000000000000000000000000000000000000000000000000000000000000000000000000000000000000000000d8457468657265756d206973206120646563656e7472616c697a65642c206f70656e2d736f7572636520626c6f636b636861696e20706c6174666f726d207468617420737570706f72747320736d61727420636f6e74726163742066756e6374696f6e616c6974792e204974207365727665732061732074686520666f756e646174696f6e20666f722074686520576562332065636f73797374656d2c2070726f766964696e6720706f77657266756c20696e66726173747275637475726520666f7220446546692c204e46547320616e642064417070732e000000000000000000000000000000000000000000000000000000000000000000000000000000064c61796572310000000000000000000000000000000000000000000000000000",
        "nonce": "0xda",
        "chainId": "0xaa36a7"
      },
      "additionalContracts": [
        {
          "transactionType": "CREATE",
          "address": "0x908dc8d19a5aeb728217688fb940255150662db3",
          "initCode": "0x3d602d80600a3d3981f3363d3d373d3d3d363d734f5dfb743f491f18481078806c5a68d6cd099a7c5af43d82803e903d91602b57fd5bf3"
        }
      ],
      "isFixedGasLimit": false
    },
    {
      "hash": "0x33ad8d74aa16e25e6496ac5c46cb913b3f1bf0995b31e87ccc0db0d78a4b0694",
      "transactionType": "CALL",
      "contractName": null,
      "contractAddress": "0x593e5b7f0ecbda634b763eee44dcb3a4cef69d91",
      "function": "createProject(string,string,string,string,uint16)",
      "arguments": [
        "Solana",
        "SOL",
        "Solana is a high-performance blockchain supporting builders around the world. Known for its ultra-fast transaction speeds and low costs, it\\'s a popular choice for building DeFi and Web3 applications.",
        "Layer1",
        "14"
      ],
      "transaction": {
        "from": "0xc19973532a44da4fb06fcf53ca5be909fde6788f",
        "to": "0x593e5b7f0ecbda634b763eee44dcb3a4cef69d91",
        "gas": "0xca79d",
        "value": "0x0",
        "input": "0x6df92d9a00000000000000000000000000000000000000000000000000000000000000a000000000000000000000000000000000000000000000000000000000000000e000000000000000000000000000000000000000000000000000000000000001200000000000000000000000000000000000000000000000000000000000000220000000000000000000000000000000000000000000000000000000000000000e0000000000000000000000000000000000000000000000000000000000000006536f6c616e6100000000000000000000000000000000000000000000000000000000000000000000000000000000000000000000000000000000000000000003534f4c000000000000000000000000000000000000000000000000000000000000000000000000000000000000000000000000000000000000000000000000c7536f6c616e61206973206120686967682d706572666f726d616e636520626c6f636b636861696e20737570706f7274696e67206275696c646572732061726f756e642074686520776f726c642e204b6e6f776e20666f722069747320756c7472612d66617374207472616e73616374696f6e2073706565647320616e64206c6f7720636f7374732c2069742773206120706f70756c61722063686f69636520666f72206275696c64696e67204465466920616e642057656233206170706c69636174696f6e732e0000000000000000000000000000000000000000000000000000000000000000000000000000000000000000000000000000000000000000064c61796572310000000000000000000000000000000000000000000000000000",
        "nonce": "0xdb",
        "chainId": "0xaa36a7"
      },
      "additionalContracts": [
        {
          "transactionType": "CREATE",
          "address": "0x278d4929173a67e58dfdcd6c89c050be0007a6b2",
          "initCode": "0x3d602d80600a3d3981f3363d3d373d3d3d363d734f5dfb743f491f18481078806c5a68d6cd099a7c5af43d82803e903d91602b57fd5bf3"
        }
      ],
      "isFixedGasLimit": false
    },
    {
      "hash": "0xa5e0be4d013f78183c476e3f46e4810596fb8564efcb3271cd855cc256f1a397",
      "transactionType": "CALL",
      "contractName": null,
      "contractAddress": "0x593e5b7f0ecbda634b763eee44dcb3a4cef69d91",
      "function": "createProject(string,string,string,string,uint16)",
      "arguments": [
        "Polygon",
        "MATIC",
        "Polygon is Ethereum\\'s scaling solution, providing faster and lower-cost transactions. Through sidechain technology, it brings users better DeFi and Gaming experiences.",
        "Layer2",
        "10"
      ],
      "transaction": {
        "from": "0xc19973532a44da4fb06fcf53ca5be909fde6788f",
        "to": "0x593e5b7f0ecbda634b763eee44dcb3a4cef69d91",
        "gas": "0xc8974",
        "value": "0x0",
        "input": "0x6df92d9a00000000000000000000000000000000000000000000000000000000000000a000000000000000000000000000000000000000000000000000000000000000e000000000000000000000000000000000000000000000000000000000000001200000000000000000000000000000000000000000000000000000000000000200000000000000000000000000000000000000000000000000000000000000000a0000000000000000000000000000000000000000000000000000000000000007506f6c79676f6e0000000000000000000000000000000000000000000000000000000000000000000000000000000000000000000000000000000000000000054d4154494300000000000000000000000000000000000000000000000000000000000000000000000000000000000000000000000000000000000000000000a7506f6c79676f6e20697320457468657265756d2773207363616c696e6720736f6c7574696f6e2c2070726f766964696e672066617374657220616e64206c6f7765722d636f7374207472616e73616374696f6e732e205468726f7567682073696465636861696e20746563686e6f6c6f67792c206974206272696e677320757365727320626574746572204465466920616e642047616d696e6720657870657269656e6365732e0000000000000000000000000000000000000000000000000000000000000000000000000000000000000000000000000000000000000000064c61796572320000000000000000000000000000000000000000000000000000",
        "nonce": "0xdc",
        "chainId": "0xaa36a7"
      },
      "additionalContracts": [
        {
          "transactionType": "CREATE",
          "address": "0xe745a35b043437fde2085f01d67882c07469d02b",
          "initCode": "0x3d602d80600a3d3981f3363d3d373d3d3d363d734f5dfb743f491f18481078806c5a68d6cd099a7c5af43d82803e903d91602b57fd5bf3"
        }
      ],
      "isFixedGasLimit": false
    },
    {
      "hash": "0x4ea50e87beec3d303027965afce2f92a8e7c13d48bd65e23dd2095d6b381475b",
      "transactionType": "CALL",
      "contractName": null,
      "contractAddress": "0x593e5b7f0ecbda634b763eee44dcb3a4cef69d91",
      "function": "createProject(string,string,string,string,uint16)",
      "arguments": [
        "Arbitrum",
        "ARB",
        "Arbitrum is Ethereum\\'s Layer 2 scaling solution using Optimistic Rollup technology. It provides developers with a fully Ethereum-compatible environment while significantly reducing transaction costs.",
        "Layer2",
        "7"
      ],
      "transaction": {
        "from": "0xc19973532a44da4fb06fcf53ca5be909fde6788f",
        "to": "0x593e5b7f0ecbda634b763eee44dcb3a4cef69d91",
        "gas": "0xca7bf",
        "value": "0x0",
        "input": "0x6df92d9a00000000000000000000000000000000000000000000000000000000000000a000000000000000000000000000000000000000000000000000000000000000e00000000000000000000000000000000000000000000000000000000000000120000000000000000000000000000000000000000000000000000000000000022000000000000000000000000000000000000000000000000000000000000000070000000000000000000000000000000000000000000000000000000000000008417262697472756d0000000000000000000000000000000000000000000000000000000000000000000000000000000000000000000000000000000000000003415242000000000000000000000000000000000000000000000000000000000000000000000000000000000000000000000000000000000000000000000000c7417262697472756d20697320457468657265756d2773204c617965722032207363616c696e6720736f6c7574696f6e207573696e67204f7074696d697374696320526f6c6c757020746563686e6f6c6f67792e2049742070726f766964657320646576656c6f70657273207769746820612066756c6c7920457468657265756d2d636f6d70617469626c6520656e7669726f6e6d656e74207768696c65207369676e69666963616e746c79207265647563696e67207472616e73616374696f6e20636f7374732e0000000000000000000000000000000000000000000000000000000000000000000000000000000000000000000000000000000000000000064c61796572320000000000000000000000000000000000000000000000000000",
        "nonce": "0xdd",
        "chainId": "0xaa36a7"
      },
      "additionalContracts": [
        {
          "transactionType": "CREATE",
          "address": "0x2abc64b25b760f4a17d6a8c56ea16fc8bf5fa127",
          "initCode": "0x3d602d80600a3d3981f3363d3d373d3d3d363d734f5dfb743f491f18481078806c5a68d6cd099a7c5af43d82803e903d91602b57fd5bf3"
        }
      ],
      "isFixedGasLimit": false
    },
    {
      "hash": "0xbf162571aab6ea1a6a4decb0dbeece326764a732f37e015335f2086bf4a0c7e9",
      "transactionType": "CALL",
      "contractName": null,
      "contractAddress": "0x593e5b7f0ecbda634b763eee44dcb3a4cef69d91",
      "function": "createProject(string,string,string,string,uint16)",
      "arguments": [
        "Uniswap",
        "UNI",
        "Uniswap is the leading decentralized trading protocol, allowing users to swap ERC-20 tokens without intermediaries. It revolutionized DeFi trading through its Automated Market Maker (AMM) model.",
        "DeFi",
        "5"
      ],
      "transaction": {
        "from": "0xc19973532a44da4fb06fcf53ca5be909fde6788f",
        "to": "0x593e5b7f0ecbda634b763eee44dcb3a4cef69d91",
        "gas": "0xdc776",
        "value": "0x0",
        "input": "0x6df92d9a00000000000000000000000000000000000000000000000000000000000000a000000000000000000000000000000000000000000000000000000000000000e00000000000000000000000000000000000000000000000000000000000000120000000000000000000000000000000000000000000000000000000000000022000000000000000000000000000000000000000000000000000000000000000050000000000000000000000000000000000000000000000000000000000000007556e6973776170000000000000000000000000000000000000000000000000000000000000000000000000000000000000000000000000000000000000000003554e49000000000000000000000000000000000000000000000000000000000000000000000000000000000000000000000000000000000000000000000000c2556e697377617020697320746865206c656164696e6720646563656e7472616c697a65642074726164696e672070726f746f636f6c2c20616c6c6f77696e6720757365727320746f2073776170204552432d323020746f6b656e7320776974686f757420696e7465726d65646961726965732e204974207265766f6c7574696f6e697a656420446546692074726164696e67207468726f75676820697473204175746f6d61746564204d61726b6574204d616b65722028414d4d29206d6f64656c2e00000000000000000000000000000000000000000000000000000000000000000000000000000000000000000000000000000000000000000000000000044465466900000000000000000000000000000000000000000000000000000000",
        "nonce": "0xde",
        "chainId": "0xaa36a7"
      },
      "additionalContracts": [
        {
          "transactionType": "CREATE",
          "address": "0x2ab14e35eacbf5dbe91e10a23d9869c687d24390",
          "initCode": "0x3d602d80600a3d3981f3363d3d373d3d3d363d734f5dfb743f491f18481078806c5a68d6cd099a7c5af43d82803e903d91602b57fd5bf3"
        }
      ],
      "isFixedGasLimit": false
    },
    {
      "hash": "0x532c662fe61b85c0d8912bc789e1dd5fd96ed8669dc14ea90f7222af45f18eac",
      "transactionType": "CALL",
      "contractName": null,
      "contractAddress": "0x593e5b7f0ecbda634b763eee44dcb3a4cef69d91",
      "function": "createProject(string,string,string,string,uint16)",
      "arguments": [
        "Aave",
        "AAVE",
        "Aave is an open-source decentralized lending protocol where users can deposit assets to earn interest or borrow assets with over-collateralization. It supports innovative features like flash loans.",
        "DeFi",
        "7"
      ],
      "transaction": {
        "from": "0xc19973532a44da4fb06fcf53ca5be909fde6788f",
        "to": "0x593e5b7f0ecbda634b763eee44dcb3a4cef69d91",
        "gas": "0xd65d7",
        "value": "0x0",
        "input": "0x6df92d9a00000000000000000000000000000000000000000000000000000000000000a000000000000000000000000000000000000000000000000000000000000000e0000000000000000000000000000000000000000000000000000000000000012000000000000000000000000000000000000000000000000000000000000002200000000000000000000000000000000000000000000000000000000000000007000000000000000000000000000000000000000000000000000000000000000441617665000000000000000000000000000000000000000000000000000000000000000000000000000000000000000000000000000000000000000000000004414156450000000000000000000000000000000000000000000000000000000000000000000000000000000000000000000000000000000000000000000000c54161766520697320616e206f70656e2d736f7572636520646563656e7472616c697a6564206c656e64696e672070726f746f636f6c2077686572652075736572732063616e206465706f7369742061737365747320746f206561726e20696e746572657374206f7220626f72726f77206173736574732077697468206f7665722d636f6c6c61746572616c697a6174696f6e2e20497420737570706f72747320696e6e6f766174697665206665617475726573206c696b6520666c617368206c6f616e732e00000000000000000000000000000000000000000000000000000000000000000000000000000000000000000000000000000000000000000000044465466900000000000000000000000000000000000000000000000000000000",
        "nonce": "0xdf",
        "chainId": "0xaa36a7"
      },
      "additionalContracts": [
        {
          "transactionType": "CREATE",
          "address": "0xa1261e58fd63548b2787319e3e22aa3ae0d4eeb9",
          "initCode": "0x3d602d80600a3d3981f3363d3d373d3d3d363d734f5dfb743f491f18481078806c5a68d6cd099a7c5af43d82803e903d91602b57fd5bf3"
        }
      ],
      "isFixedGasLimit": false
    },
    {
      "hash": "0x3582dae7629586ac0db9265b844e299a948bf21f4900ec22ab28cbf862c4e3fa",
      "transactionType": "CALL",
      "contractName": null,
      "contractAddress": "0x593e5b7f0ecbda634b763eee44dcb3a4cef69d91",
      "function": "createProject(string,string,string,string,uint16)",
      "arguments": [
        "OpenSea",
        "OS",
        "OpenSea is the world\\'s largest NFT marketplace where users can buy, sell and discover exclusive digital items. It provides a complete NFT ecosystem for creators and collectors.",
        "NFT",
        "3"
      ],
      "transaction": {
        "from": "0xc19973532a44da4fb06fcf53ca5be909fde6788f",
        "to": "0x593e5b7f0ecbda634b763eee44dcb3a4cef69d91",
        "gas": "0xd4674",
        "value": "0x0",
        "input": "0x6df92d9a00000000000000000000000000000000000000000000000000000000000000a000000000000000000000000000000000000000000000000000000000000000e000000000000000000000000000000000000000000000000000000000000001200000000000000000000000000000000000000000000000000000000000000200000000000000000000000000000000000000000000000000000000000000000300000000000000000000000000000000000000000000000000000000000000074f70656e5365610000000000000000000000000000000000000000000000000000000000000000000000000000000000000000000000000000000000000000024f5300000000000000000000000000000000000000000000000000000000000000000000000000000000000000000000000000000000000000000000000000b04f70656e5365612069732074686520776f726c642773206c617267657374204e4654206d61726b6574706c6163652077686572652075736572732063616e206275792c2073656c6c20616e6420646973636f766572206578636c7573697665206469676974616c206974656d732e2049742070726f7669646573206120636f6d706c657465204e46542065636f73797374656d20666f722063726561746f727320616e6420636f6c6c6563746f72732e0000000000000000000000000000000000000000000000000000000000000000000000000000000000000000000000034e46540000000000000000000000000000000000000000000000000000000000",
        "nonce": "0xe0",
        "chainId": "0xaa36a7"
      },
      "additionalContracts": [
        {
          "transactionType": "CREATE",
          "address": "0x6a27ef96fa7e1aeff655d7e13ee38cae7a12b6af",
          "initCode": "0x3d602d80600a3d3981f3363d3d373d3d3d363d734f5dfb743f491f18481078806c5a68d6cd099a7c5af43d82803e903d91602b57fd5bf3"
        }
      ],
      "isFixedGasLimit": false
    },
    {
      "hash": "0x5db5682999a6966a7bfb2df64644927cc878a0a9da2419f09af2abe9b8f0fa73",
      "transactionType": "CALL",
      "contractName": null,
      "contractAddress": "0x593e5b7f0ecbda634b763eee44dcb3a4cef69d91",
      "function": "createProject(string,string,string,string,uint16)",
      "arguments": [
        "Axie Infinity",
        "AXS",
        "Axie Infinity is a blockchain-based game where players can collect, breed and battle digital pets called Axies. It pioneered the Play-to-Earn gaming model.",
        "GameFi",
        "14"
      ],
      "transaction": {
        "from": "0xc19973532a44da4fb06fcf53ca5be909fde6788f",
        "to": "0x593e5b7f0ecbda634b763eee44dcb3a4cef69d91",
        "gas": "0xcc634",
        "value": "0x0",
        "input": "0x6df92d9a00000000000000000000000000000000000000000000000000000000000000a000000000000000000000000000000000000000000000000000000000000000e0000000000000000000000000000000000000000000000000000000000000012000000000000000000000000000000000000000000000000000000000000001e0000000000000000000000000000000000000000000000000000000000000000e000000000000000000000000000000000000000000000000000000000000000d4178696520496e66696e6974790000000000000000000000000000000000000000000000000000000000000000000000000000000000000000000000000000034158530000000000000000000000000000000000000000000000000000000000000000000000000000000000000000000000000000000000000000000000009b4178696520496e66696e697479206973206120626c6f636b636861696e2d62617365642067616d6520776865726520706c61796572732063616e20636f6c6c6563742c20627265656420616e6420626174746c65206469676974616c20706574732063616c6c65642041786965732e2049742070696f6e65657265642074686520506c61792d746f2d4561726e2067616d696e67206d6f64656c2e0000000000000000000000000000000000000000000000000000000000000000000000000647616d6546690000000000000000000000000000000000000000000000000000",
        "nonce": "0xe1",
        "chainId": "0xaa36a7"
      },
      "additionalContracts": [
        {
          "transactionType": "CREATE",
          "address": "0x4de3005492b53fbc1ec8477cf7f9eafb12ba965c",
          "initCode": "0x3d602d80600a3d3981f3363d3d373d3d3d363d734f5dfb743f491f18481078806c5a68d6cd099a7c5af43d82803e903d91602b57fd5bf3"
        }
      ],
      "isFixedGasLimit": false
    }
  ],
  "receipts": [
    {
      "status": "0x1",
      "cumulativeGasUsed": "0xebd4a2",
      "logs": [
        {
          "address": "0xddc47ecfa3595e8773515e13a5b2264e7c293a7b",
          "topics": [
            "0xdbe7b5ddd5d3713e36394d9168241568a421ed73f4cf69bbafc372737438c34a"
          ],
          "data": "0x000000000000000000000000000000000000000000000000000000000000006000000000000000000000000000000000000000000000000000000000000000a0000000000000000000000000c19973532a44da4fb06fcf53ca5be909fde6788f0000000000000000000000000000000000000000000000000000000000000007426974636f696e0000000000000000000000000000000000000000000000000000000000000000000000000000000000000000000000000000000000000000034254430000000000000000000000000000000000000000000000000000000000",
          "blockHash": "0xc12f10a8072ed785035fb05a0a41f10760ffb4b8ec0a213830cfb32269502590",
          "blockNumber": "0x839abc",
          "blockTimestamp": "0x685bba00",
          "transactionHash": "0x938b9363f757249ede86230004c76ee4db8107d98b700a425589e5802a3c7fdc",
          "transactionIndex": "0xad",
          "logIndex": "0xf9",
          "removed": false
        },
        {
          "address": "0xddc47ecfa3595e8773515e13a5b2264e7c293a7b",
          "topics": [
            "0xc7f505b2f371ae2175ee4913f4499e1f2633a7b5936321eed1cdaeb6115181d2"
          ],
          "data": "0x0000000000000000000000000000000000000000000000000000000000000001",
          "blockHash": "0xc12f10a8072ed785035fb05a0a41f10760ffb4b8ec0a213830cfb32269502590",
          "blockNumber": "0x839abc",
          "blockTimestamp": "0x685bba00",
          "transactionHash": "0x938b9363f757249ede86230004c76ee4db8107d98b700a425589e5802a3c7fdc",
          "transactionIndex": "0xad",
          "logIndex": "0xfa",
          "removed": false
        },
        {
          "address": "0x6d78dddd0a7daae0429e53632efc81d4837916e9",
          "topics": [
            "0x8cb1f5e0b7508307e592a641586f535256dba226b02388100691c6133f65e22e",
            "0x000000000000000000000000ddc47ecfa3595e8773515e13a5b2264e7c293a7b",
            "0x000000000000000000000000c19973532a44da4fb06fcf53ca5be909fde6788f"
          ],
          "data": "0x",
          "blockHash": "0xc12f10a8072ed785035fb05a0a41f10760ffb4b8ec0a213830cfb32269502590",
          "blockNumber": "0x839abc",
          "blockTimestamp": "0x685bba00",
          "transactionHash": "0x938b9363f757249ede86230004c76ee4db8107d98b700a425589e5802a3c7fdc",
          "transactionIndex": "0xad",
          "logIndex": "0xfb",
          "removed": false
        },
        {
          "address": "0x593e5b7f0ecbda634b763eee44dcb3a4cef69d91",
          "topics": [
            "0x4552615381857b6459e1d9ce60cdfcaff425bd152a6adff23f8ea165a5e08f56",
            "0x000000000000000000000000ddc47ecfa3595e8773515e13a5b2264e7c293a7b",
            "0x000000000000000000000000c19973532a44da4fb06fcf53ca5be909fde6788f"
          ],
          "data": "0x00000000000000000000000000000000000000000000000000000000000000200000000000000000000000000000000000000000000000000000000000000007426974636f696e00000000000000000000000000000000000000000000000000",
          "blockHash": "0xc12f10a8072ed785035fb05a0a41f10760ffb4b8ec0a213830cfb32269502590",
          "blockNumber": "0x839abc",
          "blockTimestamp": "0x685bba00",
          "transactionHash": "0x938b9363f757249ede86230004c76ee4db8107d98b700a425589e5802a3c7fdc",
          "transactionIndex": "0xad",
          "logIndex": "0xfc",
          "removed": false
        }
      ],
      "logsBloom": "0x00000000000002000000000000400000000000000000000000000000000000000000000000004000000000000000000000000000000000000000000000004000000000000000000000000040000000002000000002000000020000000000000000000000000001400000000000000200000000000000000000000000000000000002000000000000000800000000000200001000000080000400000002000020000000000000000000000000000000000000000010000000000000000000000000000000000000000001000000000000000000000004000000000000000000000000000000000000000000000010000000100100000000000000001040000000",
      "type": "0x2",
      "transactionHash": "0x938b9363f757249ede86230004c76ee4db8107d98b700a425589e5802a3c7fdc",
      "transactionIndex": "0xad",
      "blockHash": "0xc12f10a8072ed785035fb05a0a41f10760ffb4b8ec0a213830cfb32269502590",
      "blockNumber": "0x839abc",
      "gasUsed": "0x9f249",
      "effectiveGasPrice": "0xf354710",
      "from": "0xc19973532a44da4fb06fcf53ca5be909fde6788f",
      "to": "0x593e5b7f0ecbda634b763eee44dcb3a4cef69d91",
      "contractAddress": null
    },
    {
      "status": "0x1",
      "cumulativeGasUsed": "0xf4fef3",
      "logs": [
        {
          "address": "0x908dc8d19a5aeb728217688fb940255150662db3",
          "topics": [
            "0xdbe7b5ddd5d3713e36394d9168241568a421ed73f4cf69bbafc372737438c34a"
          ],
          "data": "0x000000000000000000000000000000000000000000000000000000000000006000000000000000000000000000000000000000000000000000000000000000a0000000000000000000000000c19973532a44da4fb06fcf53ca5be909fde6788f0000000000000000000000000000000000000000000000000000000000000008457468657265756d00000000000000000000000000000000000000000000000000000000000000000000000000000000000000000000000000000000000000034554480000000000000000000000000000000000000000000000000000000000",
          "blockHash": "0xc12f10a8072ed785035fb05a0a41f10760ffb4b8ec0a213830cfb32269502590",
          "blockNumber": "0x839abc",
          "blockTimestamp": "0x685bba00",
          "transactionHash": "0xe6502b418a0c35a2d5a2f721a0e7ac4ce8c718ecb9aa27ef886c0acd677e634a",
          "transactionIndex": "0xae",
          "logIndex": "0xfd",
          "removed": false
        },
        {
          "address": "0x908dc8d19a5aeb728217688fb940255150662db3",
          "topics": [
            "0xc7f505b2f371ae2175ee4913f4499e1f2633a7b5936321eed1cdaeb6115181d2"
          ],
          "data": "0x0000000000000000000000000000000000000000000000000000000000000001",
          "blockHash": "0xc12f10a8072ed785035fb05a0a41f10760ffb4b8ec0a213830cfb32269502590",
          "blockNumber": "0x839abc",
          "blockTimestamp": "0x685bba00",
          "transactionHash": "0xe6502b418a0c35a2d5a2f721a0e7ac4ce8c718ecb9aa27ef886c0acd677e634a",
          "transactionIndex": "0xae",
          "logIndex": "0xfe",
          "removed": false
        },
        {
          "address": "0x6d78dddd0a7daae0429e53632efc81d4837916e9",
          "topics": [
            "0x8cb1f5e0b7508307e592a641586f535256dba226b02388100691c6133f65e22e",
            "0x000000000000000000000000908dc8d19a5aeb728217688fb940255150662db3",
            "0x000000000000000000000000c19973532a44da4fb06fcf53ca5be909fde6788f"
          ],
          "data": "0x",
          "blockHash": "0xc12f10a8072ed785035fb05a0a41f10760ffb4b8ec0a213830cfb32269502590",
          "blockNumber": "0x839abc",
          "blockTimestamp": "0x685bba00",
          "transactionHash": "0xe6502b418a0c35a2d5a2f721a0e7ac4ce8c718ecb9aa27ef886c0acd677e634a",
          "transactionIndex": "0xae",
          "logIndex": "0xff",
          "removed": false
        },
        {
          "address": "0x593e5b7f0ecbda634b763eee44dcb3a4cef69d91",
          "topics": [
            "0x4552615381857b6459e1d9ce60cdfcaff425bd152a6adff23f8ea165a5e08f56",
            "0x000000000000000000000000908dc8d19a5aeb728217688fb940255150662db3",
            "0x000000000000000000000000c19973532a44da4fb06fcf53ca5be909fde6788f"
          ],
          "data": "0x00000000000000000000000000000000000000000000000000000000000000200000000000000000000000000000000000000000000000000000000000000008457468657265756d000000000000000000000000000000000000000000000000",
          "blockHash": "0xc12f10a8072ed785035fb05a0a41f10760ffb4b8ec0a213830cfb32269502590",
          "blockNumber": "0x839abc",
          "blockTimestamp": "0x685bba00",
          "transactionHash": "0xe6502b418a0c35a2d5a2f721a0e7ac4ce8c718ecb9aa27ef886c0acd677e634a",
          "transactionIndex": "0xae",
          "logIndex": "0x100",
          "removed": false
        }
      ],
      "logsBloom": "0x00000000000002000040000000000000000000000000000000000000000000000000000000000000000000000000000000000000000000000000000000004000000000000000000000000040000000002000000002000000020000000000000000000000000000000000000000000200000000000000000000000000000800000002000000100000000800000000020200001000000080000400000000000020000000000000000000000000000000000000000010000800000000000000000020000000000000000000000000000000000000000004000000000000000000000000000000000000000000000010000000100100000000000000001040000000",
      "type": "0x2",
      "transactionHash": "0xe6502b418a0c35a2d5a2f721a0e7ac4ce8c718ecb9aa27ef886c0acd677e634a",
      "transactionIndex": "0xae",
      "blockHash": "0xc12f10a8072ed785035fb05a0a41f10760ffb4b8ec0a213830cfb32269502590",
      "blockNumber": "0x839abc",
      "gasUsed": "0x92a51",
      "effectiveGasPrice": "0xf354710",
      "from": "0xc19973532a44da4fb06fcf53ca5be909fde6788f",
      "to": "0x593e5b7f0ecbda634b763eee44dcb3a4cef69d91",
      "contractAddress": null
    },
    {
      "status": "0x1",
      "cumulativeGasUsed": "0xfe2860",
      "logs": [
        {
          "address": "0x278d4929173a67e58dfdcd6c89c050be0007a6b2",
          "topics": [
            "0xdbe7b5ddd5d3713e36394d9168241568a421ed73f4cf69bbafc372737438c34a"
          ],
          "data": "0x000000000000000000000000000000000000000000000000000000000000006000000000000000000000000000000000000000000000000000000000000000a0000000000000000000000000c19973532a44da4fb06fcf53ca5be909fde6788f0000000000000000000000000000000000000000000000000000000000000006536f6c616e6100000000000000000000000000000000000000000000000000000000000000000000000000000000000000000000000000000000000000000003534f4c0000000000000000000000000000000000000000000000000000000000",
          "blockHash": "0xc12f10a8072ed785035fb05a0a41f10760ffb4b8ec0a213830cfb32269502590",
          "blockNumber": "0x839abc",
          "blockTimestamp": "0x685bba00",
          "transactionHash": "0x33ad8d74aa16e25e6496ac5c46cb913b3f1bf0995b31e87ccc0db0d78a4b0694",
          "transactionIndex": "0xaf",
          "logIndex": "0x101",
          "removed": false
        },
        {
          "address": "0x278d4929173a67e58dfdcd6c89c050be0007a6b2",
          "topics": [
            "0xc7f505b2f371ae2175ee4913f4499e1f2633a7b5936321eed1cdaeb6115181d2"
          ],
          "data": "0x0000000000000000000000000000000000000000000000000000000000000001",
          "blockHash": "0xc12f10a8072ed785035fb05a0a41f10760ffb4b8ec0a213830cfb32269502590",
          "blockNumber": "0x839abc",
          "blockTimestamp": "0x685bba00",
          "transactionHash": "0x33ad8d74aa16e25e6496ac5c46cb913b3f1bf0995b31e87ccc0db0d78a4b0694",
          "transactionIndex": "0xaf",
          "logIndex": "0x102",
          "removed": false
        },
        {
          "address": "0x6d78dddd0a7daae0429e53632efc81d4837916e9",
          "topics": [
            "0x8cb1f5e0b7508307e592a641586f535256dba226b02388100691c6133f65e22e",
            "0x000000000000000000000000278d4929173a67e58dfdcd6c89c050be0007a6b2",
            "0x000000000000000000000000c19973532a44da4fb06fcf53ca5be909fde6788f"
          ],
          "data": "0x",
          "blockHash": "0xc12f10a8072ed785035fb05a0a41f10760ffb4b8ec0a213830cfb32269502590",
          "blockNumber": "0x839abc",
          "blockTimestamp": "0x685bba00",
          "transactionHash": "0x33ad8d74aa16e25e6496ac5c46cb913b3f1bf0995b31e87ccc0db0d78a4b0694",
          "transactionIndex": "0xaf",
          "logIndex": "0x103",
          "removed": false
        },
        {
          "address": "0x593e5b7f0ecbda634b763eee44dcb3a4cef69d91",
          "topics": [
            "0x4552615381857b6459e1d9ce60cdfcaff425bd152a6adff23f8ea165a5e08f56",
            "0x000000000000000000000000278d4929173a67e58dfdcd6c89c050be0007a6b2",
            "0x000000000000000000000000c19973532a44da4fb06fcf53ca5be909fde6788f"
          ],
          "data": "0x00000000000000000000000000000000000000000000000000000000000000200000000000000000000000000000000000000000000000000000000000000006536f6c616e610000000000000000000000000000000000000000000000000000",
          "blockHash": "0xc12f10a8072ed785035fb05a0a41f10760ffb4b8ec0a213830cfb32269502590",
          "blockNumber": "0x839abc",
          "blockTimestamp": "0x685bba00",
          "transactionHash": "0x33ad8d74aa16e25e6496ac5c46cb913b3f1bf0995b31e87ccc0db0d78a4b0694",
          "transactionIndex": "0xaf",
          "logIndex": "0x104",
          "removed": false
        }
      ],
      "logsBloom": "0x00000000000002000000000000000200000000000000000000000000000000001000000000000000000000000000000000000000000000000000000000004010000000000000000000000040000000002000000002000000020000000000000000000000010000000000000000000200000000000000000000000000000000000002000000000000000800000020000200001000000080000400000000000020000000000000000000000000000000000000100010000000000000000000000000000000000000000000000000000000000000000004000000000000000000000000000000000000000000000010000000100100000000000000001040000000",
      "type": "0x2",
      "transactionHash": "0x33ad8d74aa16e25e6496ac5c46cb913b3f1bf0995b31e87ccc0db0d78a4b0694",
      "transactionIndex": "0xaf",
      "blockHash": "0xc12f10a8072ed785035fb05a0a41f10760ffb4b8ec0a213830cfb32269502590",
      "blockNumber": "0x839abc",
      "gasUsed": "0x9296d",
      "effectiveGasPrice": "0xf354710",
      "from": "0xc19973532a44da4fb06fcf53ca5be909fde6788f",
      "to": "0x593e5b7f0ecbda634b763eee44dcb3a4cef69d91",
      "contractAddress": null
    },
    {
      "status": "0x1",
      "cumulativeGasUsed": "0x1073bf7",
      "logs": [
        {
          "address": "0xe745a35b043437fde2085f01d67882c07469d02b",
          "topics": [
            "0xdbe7b5ddd5d3713e36394d9168241568a421ed73f4cf69bbafc372737438c34a"
          ],
          "data": "0x000000000000000000000000000000000000000000000000000000000000006000000000000000000000000000000000000000000000000000000000000000a0000000000000000000000000c19973532a44da4fb06fcf53ca5be909fde6788f0000000000000000000000000000000000000000000000000000000000000007506f6c79676f6e0000000000000000000000000000000000000000000000000000000000000000000000000000000000000000000000000000000000000000054d41544943000000000000000000000000000000000000000000000000000000",
          "blockHash": "0xc12f10a8072ed785035fb05a0a41f10760ffb4b8ec0a213830cfb32269502590",
          "blockNumber": "0x839abc",
          "blockTimestamp": "0x685bba00",
          "transactionHash": "0xa5e0be4d013f78183c476e3f46e4810596fb8564efcb3271cd855cc256f1a397",
          "transactionIndex": "0xb0",
          "logIndex": "0x105",
          "removed": false
        },
        {
          "address": "0xe745a35b043437fde2085f01d67882c07469d02b",
          "topics": [
            "0xc7f505b2f371ae2175ee4913f4499e1f2633a7b5936321eed1cdaeb6115181d2"
          ],
          "data": "0x0000000000000000000000000000000000000000000000000000000000000001",
          "blockHash": "0xc12f10a8072ed785035fb05a0a41f10760ffb4b8ec0a213830cfb32269502590",
          "blockNumber": "0x839abc",
          "blockTimestamp": "0x685bba00",
          "transactionHash": "0xa5e0be4d013f78183c476e3f46e4810596fb8564efcb3271cd855cc256f1a397",
          "transactionIndex": "0xb0",
          "logIndex": "0x106",
          "removed": false
        },
        {
          "address": "0x6d78dddd0a7daae0429e53632efc81d4837916e9",
          "topics": [
            "0x8cb1f5e0b7508307e592a641586f535256dba226b02388100691c6133f65e22e",
            "0x000000000000000000000000e745a35b043437fde2085f01d67882c07469d02b",
            "0x000000000000000000000000c19973532a44da4fb06fcf53ca5be909fde6788f"
          ],
          "data": "0x",
          "blockHash": "0xc12f10a8072ed785035fb05a0a41f10760ffb4b8ec0a213830cfb32269502590",
          "blockNumber": "0x839abc",
          "blockTimestamp": "0x685bba00",
          "transactionHash": "0xa5e0be4d013f78183c476e3f46e4810596fb8564efcb3271cd855cc256f1a397",
          "transactionIndex": "0xb0",
          "logIndex": "0x107",
          "removed": false
        },
        {
          "address": "0x593e5b7f0ecbda634b763eee44dcb3a4cef69d91",
          "topics": [
            "0x4552615381857b6459e1d9ce60cdfcaff425bd152a6adff23f8ea165a5e08f56",
            "0x000000000000000000000000e745a35b043437fde2085f01d67882c07469d02b",
            "0x000000000000000000000000c19973532a44da4fb06fcf53ca5be909fde6788f"
          ],
          "data": "0x00000000000000000000000000000000000000000000000000000000000000200000000000000000000000000000000000000000000000000000000000000007506f6c79676f6e00000000000000000000000000000000000000000000000000",
          "blockHash": "0xc12f10a8072ed785035fb05a0a41f10760ffb4b8ec0a213830cfb32269502590",
          "blockNumber": "0x839abc",
          "blockTimestamp": "0x685bba00",
          "transactionHash": "0xa5e0be4d013f78183c476e3f46e4810596fb8564efcb3271cd855cc256f1a397",
          "transactionIndex": "0xb0",
          "logIndex": "0x108",
          "removed": false
        }
      ],
      "logsBloom": "0x00000000000002000000000000000000000000000000000000000000000000000000000000000800400000000000000000000000000000000000000000004000000000000000000000000040000000002000000002000000020000000000000000000000000000004000000000000200000000000000000000000000000000000002000000000000000800000000000200001000200080000400000000004020000000000000000000000000000000000002000010000000000000000000000000000000000000000000000000000000000000000004000000000000000000000000000000000000000000000010000000100100000000000000001040000000",
      "type": "0x2",
      "transactionHash": "0xa5e0be4d013f78183c476e3f46e4810596fb8564efcb3271cd855cc256f1a397",
      "transactionIndex": "0xb0",
      "blockHash": "0xc12f10a8072ed785035fb05a0a41f10760ffb4b8ec0a213830cfb32269502590",
      "blockNumber": "0x839abc",
      "gasUsed": "0x91397",
      "effectiveGasPrice": "0xf354710",
      "from": "0xc19973532a44da4fb06fcf53ca5be909fde6788f",
      "to": "0x593e5b7f0ecbda634b763eee44dcb3a4cef69d91",
      "contractAddress": null
    },
    {
      "status": "0x1",
      "cumulativeGasUsed": "0x110657c",
      "logs": [
        {
          "address": "0x2abc64b25b760f4a17d6a8c56ea16fc8bf5fa127",
          "topics": [
            "0xdbe7b5ddd5d3713e36394d9168241568a421ed73f4cf69bbafc372737438c34a"
          ],
          "data": "0x000000000000000000000000000000000000000000000000000000000000006000000000000000000000000000000000000000000000000000000000000000a0000000000000000000000000c19973532a44da4fb06fcf53ca5be909fde6788f0000000000000000000000000000000000000000000000000000000000000008417262697472756d00000000000000000000000000000000000000000000000000000000000000000000000000000000000000000000000000000000000000034152420000000000000000000000000000000000000000000000000000000000",
          "blockHash": "0xc12f10a8072ed785035fb05a0a41f10760ffb4b8ec0a213830cfb32269502590",
          "blockNumber": "0x839abc",
          "blockTimestamp": "0x685bba00",
          "transactionHash": "0x4ea50e87beec3d303027965afce2f92a8e7c13d48bd65e23dd2095d6b381475b",
          "transactionIndex": "0xb1",
          "logIndex": "0x109",
          "removed": false
        },
        {
          "address": "0x2abc64b25b760f4a17d6a8c56ea16fc8bf5fa127",
          "topics": [
            "0xc7f505b2f371ae2175ee4913f4499e1f2633a7b5936321eed1cdaeb6115181d2"
          ],
          "data": "0x0000000000000000000000000000000000000000000000000000000000000001",
          "blockHash": "0xc12f10a8072ed785035fb05a0a41f10760ffb4b8ec0a213830cfb32269502590",
          "blockNumber": "0x839abc",
          "blockTimestamp": "0x685bba00",
          "transactionHash": "0x4ea50e87beec3d303027965afce2f92a8e7c13d48bd65e23dd2095d6b381475b",
          "transactionIndex": "0xb1",
          "logIndex": "0x10a",
          "removed": false
        },
        {
          "address": "0x6d78dddd0a7daae0429e53632efc81d4837916e9",
          "topics": [
            "0x8cb1f5e0b7508307e592a641586f535256dba226b02388100691c6133f65e22e",
            "0x0000000000000000000000002abc64b25b760f4a17d6a8c56ea16fc8bf5fa127",
            "0x000000000000000000000000c19973532a44da4fb06fcf53ca5be909fde6788f"
          ],
          "data": "0x",
          "blockHash": "0xc12f10a8072ed785035fb05a0a41f10760ffb4b8ec0a213830cfb32269502590",
          "blockNumber": "0x839abc",
          "blockTimestamp": "0x685bba00",
          "transactionHash": "0x4ea50e87beec3d303027965afce2f92a8e7c13d48bd65e23dd2095d6b381475b",
          "transactionIndex": "0xb1",
          "logIndex": "0x10b",
          "removed": false
        },
        {
          "address": "0x593e5b7f0ecbda634b763eee44dcb3a4cef69d91",
          "topics": [
            "0x4552615381857b6459e1d9ce60cdfcaff425bd152a6adff23f8ea165a5e08f56",
            "0x0000000000000000000000002abc64b25b760f4a17d6a8c56ea16fc8bf5fa127",
            "0x000000000000000000000000c19973532a44da4fb06fcf53ca5be909fde6788f"
          ],
          "data": "0x00000000000000000000000000000000000000000000000000000000000000200000000000000000000000000000000000000000000000000000000000000008417262697472756d000000000000000000000000000000000000000000000000",
          "blockHash": "0xc12f10a8072ed785035fb05a0a41f10760ffb4b8ec0a213830cfb32269502590",
          "blockNumber": "0x839abc",
          "blockTimestamp": "0x685bba00",
          "transactionHash": "0x4ea50e87beec3d303027965afce2f92a8e7c13d48bd65e23dd2095d6b381475b",
          "transactionIndex": "0xb1",
          "logIndex": "0x10c",
          "removed": false
        }
      ],
      "logsBloom": "0x00000000000002000000000000000000000000000000000000000000000000000000000000000000000000000000000000000000000000000000000000004000000000000000000000000040000000002000000002000000020000000000000000000000000000000000000400000200000000000000000000000000000000000002000000000000000800000000000200001000000080000400000000000020000000000000000000000000000000000000000010000008000000000000001000000000000000000000000000000000000000000004000000000000000000000000000000000000000000001010000000100100100000000000401040000000",
      "type": "0x2",
      "transactionHash": "0x4ea50e87beec3d303027965afce2f92a8e7c13d48bd65e23dd2095d6b381475b",
      "transactionIndex": "0xb1",
      "blockHash": "0xc12f10a8072ed785035fb05a0a41f10760ffb4b8ec0a213830cfb32269502590",
      "blockNumber": "0x839abc",
      "gasUsed": "0x92985",
      "effectiveGasPrice": "0xf354710",
      "from": "0xc19973532a44da4fb06fcf53ca5be909fde6788f",
      "to": "0x593e5b7f0ecbda634b763eee44dcb3a4cef69d91",
      "contractAddress": null
    },
    {
      "status": "0x1",
      "cumulativeGasUsed": "0x119d16d",
      "logs": [
        {
          "address": "0x2ab14e35eacbf5dbe91e10a23d9869c687d24390",
          "topics": [
            "0xdbe7b5ddd5d3713e36394d9168241568a421ed73f4cf69bbafc372737438c34a"
          ],
          "data": "0x000000000000000000000000000000000000000000000000000000000000006000000000000000000000000000000000000000000000000000000000000000a0000000000000000000000000c19973532a44da4fb06fcf53ca5be909fde6788f0000000000000000000000000000000000000000000000000000000000000007556e6973776170000000000000000000000000000000000000000000000000000000000000000000000000000000000000000000000000000000000000000003554e490000000000000000000000000000000000000000000000000000000000",
          "blockHash": "0xc12f10a8072ed785035fb05a0a41f10760ffb4b8ec0a213830cfb32269502590",
          "blockNumber": "0x839abc",
          "blockTimestamp": "0x685bba00",
          "transactionHash": "0xbf162571aab6ea1a6a4decb0dbeece326764a732f37e015335f2086bf4a0c7e9",
          "transactionIndex": "0xb2",
          "logIndex": "0x10d",
          "removed": false
        },
        {
          "address": "0x2ab14e35eacbf5dbe91e10a23d9869c687d24390",
          "topics": [
            "0xc7f505b2f371ae2175ee4913f4499e1f2633a7b5936321eed1cdaeb6115181d2"
          ],
          "data": "0x0000000000000000000000000000000000000000000000000000000000000001",
          "blockHash": "0xc12f10a8072ed785035fb05a0a41f10760ffb4b8ec0a213830cfb32269502590",
          "blockNumber": "0x839abc",
          "blockTimestamp": "0x685bba00",
          "transactionHash": "0xbf162571aab6ea1a6a4decb0dbeece326764a732f37e015335f2086bf4a0c7e9",
          "transactionIndex": "0xb2",
          "logIndex": "0x10e",
          "removed": false
        },
        {
          "address": "0x6d78dddd0a7daae0429e53632efc81d4837916e9",
          "topics": [
            "0x8cb1f5e0b7508307e592a641586f535256dba226b02388100691c6133f65e22e",
            "0x0000000000000000000000002ab14e35eacbf5dbe91e10a23d9869c687d24390",
            "0x000000000000000000000000c19973532a44da4fb06fcf53ca5be909fde6788f"
          ],
          "data": "0x",
          "blockHash": "0xc12f10a8072ed785035fb05a0a41f10760ffb4b8ec0a213830cfb32269502590",
          "blockNumber": "0x839abc",
          "blockTimestamp": "0x685bba00",
          "transactionHash": "0xbf162571aab6ea1a6a4decb0dbeece326764a732f37e015335f2086bf4a0c7e9",
          "transactionIndex": "0xb2",
          "logIndex": "0x10f",
          "removed": false
        },
        {
          "address": "0x593e5b7f0ecbda634b763eee44dcb3a4cef69d91",
          "topics": [
            "0x4552615381857b6459e1d9ce60cdfcaff425bd152a6adff23f8ea165a5e08f56",
            "0x0000000000000000000000002ab14e35eacbf5dbe91e10a23d9869c687d24390",
            "0x000000000000000000000000c19973532a44da4fb06fcf53ca5be909fde6788f"
          ],
          "data": "0x00000000000000000000000000000000000000000000000000000000000000200000000000000000000000000000000000000000000000000000000000000007556e697377617000000000000000000000000000000000000000000000000000",
          "blockHash": "0xc12f10a8072ed785035fb05a0a41f10760ffb4b8ec0a213830cfb32269502590",
          "blockNumber": "0x839abc",
          "blockTimestamp": "0x685bba00",
          "transactionHash": "0xbf162571aab6ea1a6a4decb0dbeece326764a732f37e015335f2086bf4a0c7e9",
          "transactionIndex": "0xb2",
          "logIndex": "0x110",
          "removed": false
        }
      ],
      "logsBloom": "0x00000000000012000000000000000400000000000000000000000000000000000000000000000000000000010000000000008000000000000000000000004000000000000000000000000440000000002000000002000000020000000000000000000000000000000000000000000200000000000000000000000000000000000002008000000000000800000000000200001000000080000400000000000020000000000000000000000000000000000000000010000000000000000000000000000000000000000000000000000000000000000004000000000000000000000000000000000000000000000010000000100100000000000000001040000000",
      "type": "0x2",
      "transactionHash": "0xbf162571aab6ea1a6a4decb0dbeece326764a732f37e015335f2086bf4a0c7e9",
      "transactionIndex": "0xb2",
      "blockHash": "0xc12f10a8072ed785035fb05a0a41f10760ffb4b8ec0a213830cfb32269502590",
      "blockNumber": "0x839abc",
      "gasUsed": "0x96bf1",
      "effectiveGasPrice": "0xf354710",
      "from": "0xc19973532a44da4fb06fcf53ca5be909fde6788f",
      "to": "0x593e5b7f0ecbda634b763eee44dcb3a4cef69d91",
      "contractAddress": null
    },
    {
      "status": "0x1",
      "cumulativeGasUsed": "0x122fa9e",
      "logs": [
        {
          "address": "0xa1261e58fd63548b2787319e3e22aa3ae0d4eeb9",
          "topics": [
            "0xdbe7b5ddd5d3713e36394d9168241568a421ed73f4cf69bbafc372737438c34a"
          ],
          "data": "0x000000000000000000000000000000000000000000000000000000000000006000000000000000000000000000000000000000000000000000000000000000a0000000000000000000000000c19973532a44da4fb06fcf53ca5be909fde6788f0000000000000000000000000000000000000000000000000000000000000004416176650000000000000000000000000000000000000000000000000000000000000000000000000000000000000000000000000000000000000000000000044141564500000000000000000000000000000000000000000000000000000000",
          "blockHash": "0xc12f10a8072ed785035fb05a0a41f10760ffb4b8ec0a213830cfb32269502590",
          "blockNumber": "0x839abc",
          "blockTimestamp": "0x685bba00",
          "transactionHash": "0x532c662fe61b85c0d8912bc789e1dd5fd96ed8669dc14ea90f7222af45f18eac",
          "transactionIndex": "0xb3",
          "logIndex": "0x111",
          "removed": false
        },
        {
          "address": "0xa1261e58fd63548b2787319e3e22aa3ae0d4eeb9",
          "topics": [
            "0xc7f505b2f371ae2175ee4913f4499e1f2633a7b5936321eed1cdaeb6115181d2"
          ],
          "data": "0x0000000000000000000000000000000000000000000000000000000000000001",
          "blockHash": "0xc12f10a8072ed785035fb05a0a41f10760ffb4b8ec0a213830cfb32269502590",
          "blockNumber": "0x839abc",
          "blockTimestamp": "0x685bba00",
          "transactionHash": "0x532c662fe61b85c0d8912bc789e1dd5fd96ed8669dc14ea90f7222af45f18eac",
          "transactionIndex": "0xb3",
          "logIndex": "0x112",
          "removed": false
        },
        {
          "address": "0x6d78dddd0a7daae0429e53632efc81d4837916e9",
          "topics": [
            "0x8cb1f5e0b7508307e592a641586f535256dba226b02388100691c6133f65e22e",
            "0x000000000000000000000000a1261e58fd63548b2787319e3e22aa3ae0d4eeb9",
            "0x000000000000000000000000c19973532a44da4fb06fcf53ca5be909fde6788f"
          ],
          "data": "0x",
          "blockHash": "0xc12f10a8072ed785035fb05a0a41f10760ffb4b8ec0a213830cfb32269502590",
          "blockNumber": "0x839abc",
          "blockTimestamp": "0x685bba00",
          "transactionHash": "0x532c662fe61b85c0d8912bc789e1dd5fd96ed8669dc14ea90f7222af45f18eac",
          "transactionIndex": "0xb3",
          "logIndex": "0x113",
          "removed": false
        },
        {
          "address": "0x593e5b7f0ecbda634b763eee44dcb3a4cef69d91",
          "topics": [
            "0x4552615381857b6459e1d9ce60cdfcaff425bd152a6adff23f8ea165a5e08f56",
            "0x000000000000000000000000a1261e58fd63548b2787319e3e22aa3ae0d4eeb9",
            "0x000000000000000000000000c19973532a44da4fb06fcf53ca5be909fde6788f"
          ],
          "data": "0x000000000000000000000000000000000000000000000000000000000000002000000000000000000000000000000000000000000000000000000000000000044161766500000000000000000000000000000000000000000000000000000000",
          "blockHash": "0xc12f10a8072ed785035fb05a0a41f10760ffb4b8ec0a213830cfb32269502590",
          "blockNumber": "0x839abc",
          "blockTimestamp": "0x685bba00",
          "transactionHash": "0x532c662fe61b85c0d8912bc789e1dd5fd96ed8669dc14ea90f7222af45f18eac",
          "transactionIndex": "0xb3",
          "logIndex": "0x114",
          "removed": false
        }
      ],
      "logsBloom": "0x00000020000002001000000000000000000000000000000000000000000000000000000000000000000000000000000000000000000000000000000000004000000000000000000000000040000000002000000002000000020000000000000000000000000000000000000000000200000000000000200000000000000000000002000000000000000800000000000200041000000080000400000000000020000000000000000000000000000000000000000010000000000000000000000000000000000000000000000000000000000000000004000000000100000001000000000000000000000000000010000000100100000000000000001040000000",
      "type": "0x2",
      "transactionHash": "0x532c662fe61b85c0d8912bc789e1dd5fd96ed8669dc14ea90f7222af45f18eac",
      "transactionIndex": "0xb3",
      "blockHash": "0xc12f10a8072ed785035fb05a0a41f10760ffb4b8ec0a213830cfb32269502590",
      "blockNumber": "0x839abc",
      "gasUsed": "0x92931",
      "effectiveGasPrice": "0xf354710",
      "from": "0xc19973532a44da4fb06fcf53ca5be909fde6788f",
      "to": "0x593e5b7f0ecbda634b763eee44dcb3a4cef69d91",
      "contractAddress": null
    },
    {
      "status": "0x1",
      "cumulativeGasUsed": "0x12c0e59",
      "logs": [
        {
          "address": "0x6a27ef96fa7e1aeff655d7e13ee38cae7a12b6af",
          "topics": [
            "0xdbe7b5ddd5d3713e36394d9168241568a421ed73f4cf69bbafc372737438c34a"
          ],
          "data": "0x000000000000000000000000000000000000000000000000000000000000006000000000000000000000000000000000000000000000000000000000000000a0000000000000000000000000c19973532a44da4fb06fcf53ca5be909fde6788f00000000000000000000000000000000000000000000000000000000000000074f70656e5365610000000000000000000000000000000000000000000000000000000000000000000000000000000000000000000000000000000000000000024f53000000000000000000000000000000000000000000000000000000000000",
          "blockHash": "0xc12f10a8072ed785035fb05a0a41f10760ffb4b8ec0a213830cfb32269502590",
          "blockNumber": "0x839abc",
          "blockTimestamp": "0x685bba00",
          "transactionHash": "0x3582dae7629586ac0db9265b844e299a948bf21f4900ec22ab28cbf862c4e3fa",
          "transactionIndex": "0xb4",
          "logIndex": "0x115",
          "removed": false
        },
        {
          "address": "0x6a27ef96fa7e1aeff655d7e13ee38cae7a12b6af",
          "topics": [
            "0xc7f505b2f371ae2175ee4913f4499e1f2633a7b5936321eed1cdaeb6115181d2"
          ],
          "data": "0x0000000000000000000000000000000000000000000000000000000000000001",
          "blockHash": "0xc12f10a8072ed785035fb05a0a41f10760ffb4b8ec0a213830cfb32269502590",
          "blockNumber": "0x839abc",
          "blockTimestamp": "0x685bba00",
          "transactionHash": "0x3582dae7629586ac0db9265b844e299a948bf21f4900ec22ab28cbf862c4e3fa",
          "transactionIndex": "0xb4",
          "logIndex": "0x116",
          "removed": false
        },
        {
          "address": "0x6d78dddd0a7daae0429e53632efc81d4837916e9",
          "topics": [
            "0x8cb1f5e0b7508307e592a641586f535256dba226b02388100691c6133f65e22e",
            "0x0000000000000000000000006a27ef96fa7e1aeff655d7e13ee38cae7a12b6af",
            "0x000000000000000000000000c19973532a44da4fb06fcf53ca5be909fde6788f"
          ],
          "data": "0x",
          "blockHash": "0xc12f10a8072ed785035fb05a0a41f10760ffb4b8ec0a213830cfb32269502590",
          "blockNumber": "0x839abc",
          "blockTimestamp": "0x685bba00",
          "transactionHash": "0x3582dae7629586ac0db9265b844e299a948bf21f4900ec22ab28cbf862c4e3fa",
          "transactionIndex": "0xb4",
          "logIndex": "0x117",
          "removed": false
        },
        {
          "address": "0x593e5b7f0ecbda634b763eee44dcb3a4cef69d91",
          "topics": [
            "0x4552615381857b6459e1d9ce60cdfcaff425bd152a6adff23f8ea165a5e08f56",
            "0x0000000000000000000000006a27ef96fa7e1aeff655d7e13ee38cae7a12b6af",
            "0x000000000000000000000000c19973532a44da4fb06fcf53ca5be909fde6788f"
          ],
          "data": "0x000000000000000000000000000000000000000000000000000000000000002000000000000000000000000000000000000000000000000000000000000000074f70656e53656100000000000000000000000000000000000000000000000000",
          "blockHash": "0xc12f10a8072ed785035fb05a0a41f10760ffb4b8ec0a213830cfb32269502590",
          "blockNumber": "0x839abc",
          "blockTimestamp": "0x685bba00",
          "transactionHash": "0x3582dae7629586ac0db9265b844e299a948bf21f4900ec22ab28cbf862c4e3fa",
          "transactionIndex": "0xb4",
          "logIndex": "0x118",
          "removed": false
        }
      ],
      "logsBloom": "0x00000000000002000000000000000000000000000000000000000000000000000000000000000000000000000000000000000000000000000000000000004000000000000000000000000040000000002000000002000000020000000000000000000000000000000000000000080200000000000000012000000000000000000082000000000000000800000000000200001000000080000400000000000020000000000000000000000000000000000000000010000000000000000000000000000000000000000000000000000002000000000004000000000000000000000100000000000000000000000010000000100100000000000000001040000000",
      "type": "0x2",
      "transactionHash": "0x3582dae7629586ac0db9265b844e299a948bf21f4900ec22ab28cbf862c4e3fa",
      "transactionIndex": "0xb4",
      "blockHash": "0xc12f10a8072ed785035fb05a0a41f10760ffb4b8ec0a213830cfb32269502590",
      "blockNumber": "0x839abc",
      "gasUsed": "0x913bb",
      "effectiveGasPrice": "0xf354710",
      "from": "0xc19973532a44da4fb06fcf53ca5be909fde6788f",
      "to": "0x593e5b7f0ecbda634b763eee44dcb3a4cef69d91",
      "contractAddress": null
    },
    {
      "status": "0x1",
      "cumulativeGasUsed": "0x134ca63",
      "logs": [
        {
          "address": "0x4de3005492b53fbc1ec8477cf7f9eafb12ba965c",
          "topics": [
            "0xdbe7b5ddd5d3713e36394d9168241568a421ed73f4cf69bbafc372737438c34a"
          ],
          "data": "0x000000000000000000000000000000000000000000000000000000000000006000000000000000000000000000000000000000000000000000000000000000a0000000000000000000000000c19973532a44da4fb06fcf53ca5be909fde6788f000000000000000000000000000000000000000000000000000000000000000d4178696520496e66696e6974790000000000000000000000000000000000000000000000000000000000000000000000000000000000000000000000000000034158530000000000000000000000000000000000000000000000000000000000",
          "blockHash": "0xc12f10a8072ed785035fb05a0a41f10760ffb4b8ec0a213830cfb32269502590",
          "blockNumber": "0x839abc",
          "blockTimestamp": "0x685bba00",
          "transactionHash": "0x5db5682999a6966a7bfb2df64644927cc878a0a9da2419f09af2abe9b8f0fa73",
          "transactionIndex": "0xb5",
          "logIndex": "0x119",
          "removed": false
        },
        {
          "address": "0x4de3005492b53fbc1ec8477cf7f9eafb12ba965c",
          "topics": [
            "0xc7f505b2f371ae2175ee4913f4499e1f2633a7b5936321eed1cdaeb6115181d2"
          ],
          "data": "0x0000000000000000000000000000000000000000000000000000000000000001",
          "blockHash": "0xc12f10a8072ed785035fb05a0a41f10760ffb4b8ec0a213830cfb32269502590",
          "blockNumber": "0x839abc",
          "blockTimestamp": "0x685bba00",
          "transactionHash": "0x5db5682999a6966a7bfb2df64644927cc878a0a9da2419f09af2abe9b8f0fa73",
          "transactionIndex": "0xb5",
          "logIndex": "0x11a",
          "removed": false
        },
        {
          "address": "0x6d78dddd0a7daae0429e53632efc81d4837916e9",
          "topics": [
            "0x8cb1f5e0b7508307e592a641586f535256dba226b02388100691c6133f65e22e",
            "0x0000000000000000000000004de3005492b53fbc1ec8477cf7f9eafb12ba965c",
            "0x000000000000000000000000c19973532a44da4fb06fcf53ca5be909fde6788f"
          ],
          "data": "0x",
          "blockHash": "0xc12f10a8072ed785035fb05a0a41f10760ffb4b8ec0a213830cfb32269502590",
          "blockNumber": "0x839abc",
          "blockTimestamp": "0x685bba00",
          "transactionHash": "0x5db5682999a6966a7bfb2df64644927cc878a0a9da2419f09af2abe9b8f0fa73",
          "transactionIndex": "0xb5",
          "logIndex": "0x11b",
          "removed": false
        },
        {
          "address": "0x593e5b7f0ecbda634b763eee44dcb3a4cef69d91",
          "topics": [
            "0x4552615381857b6459e1d9ce60cdfcaff425bd152a6adff23f8ea165a5e08f56",
            "0x0000000000000000000000004de3005492b53fbc1ec8477cf7f9eafb12ba965c",
            "0x000000000000000000000000c19973532a44da4fb06fcf53ca5be909fde6788f"
          ],
          "data": "0x0000000000000000000000000000000000000000000000000000000000000020000000000000000000000000000000000000000000000000000000000000000d4178696520496e66696e69747900000000000000000000000000000000000000",
          "blockHash": "0xc12f10a8072ed785035fb05a0a41f10760ffb4b8ec0a213830cfb32269502590",
          "blockNumber": "0x839abc",
          "blockTimestamp": "0x685bba00",
          "transactionHash": "0x5db5682999a6966a7bfb2df64644927cc878a0a9da2419f09af2abe9b8f0fa73",
          "transactionIndex": "0xb5",
          "logIndex": "0x11c",
          "removed": false
        }
      ],
      "logsBloom": "0x00000000000002000000000000080000000000000000000000000000000000000000000000000000000000000000000000000000000000000000000000004000000000000000000000000040000000002000000002000000020000000000000000000000001000000000000000000200000000000000000000000000000000000002000000000000000800000000000200001000000080000400000000800020000000000000020000000000000000000000000010000000200000000000000000000000000000000000000000000000000000000004000000000000000000000000000000000000000000000010000000100100000000000000001040000008",
      "type": "0x2",
      "transactionHash": "0x5db5682999a6966a7bfb2df64644927cc878a0a9da2419f09af2abe9b8f0fa73",
      "transactionIndex": "0xb5",
      "blockHash": "0xc12f10a8072ed785035fb05a0a41f10760ffb4b8ec0a213830cfb32269502590",
      "blockNumber": "0x839abc",
      "gasUsed": "0x8bc0a",
      "effectiveGasPrice": "0xf354710",
      "from": "0xc19973532a44da4fb06fcf53ca5be909fde6788f",
      "to": "0x593e5b7f0ecbda634b763eee44dcb3a4cef69d91",
      "contractAddress": null
    }
  ],
  "libraries": [],
  "pending": [],
  "returns": {},
  "timestamp": 1750841858,
  "chain": 11155111,
  "commit": "a8ffade"
}