{
  "transactions": [
    {
      "hash": "0x2a82fc9cbfbe04dff30d937fcb0dadaca30778bd35cbe4213cfb4a3eb8cd3127",
      "transactionType": "CALL",
      "contractName": null,
      "contractAddress": "0xbb4ca8a90058073e0c47ea221db534962eebb9a1",
      "function": "approve(address,uint256)",
      "arguments": [
        "0x0e56B0209400C8b55CD451c0C4ef0CEfed34Aaeb",
        "1000000000"
      ],
      "transaction": {
        "from": "0xc19973532a44da4fb06fcf53ca5be909fde6788f",
        "to": "0xbb4ca8a90058073e0c47ea221db534962eebb9a1",
        "gas": "0x10628",
        "value": "0x0",
        "input": "0x095ea7b30000000000000000000000000e56b0209400c8b55cd451c0c4ef0cefed34aaeb000000000000000000000000000000000000000000000000000000003b9aca00",
        "nonce": "0xe2",
        "chainId": "0xaa36a7"
      },
      "additionalContracts": [],
      "isFixedGasLimit": false
    },
    {
      "hash": "0x4162e17b166a3f70e3a2d9a3ccd2334467ded15ed28781f14f05f79ab7de317e",
      "transactionType": "CALL",
      "contractName": null,
      "contractAddress": "0x0e56b0209400c8b55cd451c0c4ef0cefed34aaeb",
      "function": "createCampaign(address,string,uint256,address,uint256)",
      "arguments": [
        "0xdDc47EcfA3595e8773515E13a5B2264E7C293A7b",
        "Bitcoin Community",
        "30",
        "0xBb4ca8a90058073e0c47EA221db534962eebB9A1",
        "1000000000"
      ],
      "transaction": {
        "from": "0xc19973532a44da4fb06fcf53ca5be909fde6788f",
        "to": "0x0e56b0209400c8b55cd451c0c4ef0cefed34aaeb",
        "gas": "0xc6642",
        "value": "0x0",
        "input": "0xa94fda72000000000000000000000000ddc47ecfa3595e8773515e13a5b2264e7c293a7b00000000000000000000000000000000000000000000000000000000000000a0000000000000000000000000000000000000000000000000000000000000001e000000000000000000000000bb4ca8a90058073e0c47ea221db534962eebb9a1000000000000000000000000000000000000000000000000000000003b9aca000000000000000000000000000000000000000000000000000000000000000011426974636f696e20436f6d6d756e697479000000000000000000000000000000",
        "nonce": "0xe3",
        "chainId": "0xaa36a7"
      },
      "additionalContracts": [
        {
          "transactionType": "CREATE",
          "address": "0x7699f4f966e406d0cb2458fe807c8d06b8493cbd",
          "initCode": "0x3d602d80600a3d3981f3363d3d373d3d3d363d7376ff75c289858d6d9c16b5573cb39217b345e9bd5af43d82803e903d91602b57fd5bf3"
        }
      ],
      "isFixedGasLimit": false
    },
    {
      "hash": "0x5aa3a599d1ac3da5a34b489eb8c7ba888a62ae4e0387354d23d384ac6ee5d09e",
      "transactionType": "CALL",
      "contractName": null,
      "contractAddress": "0xbb4ca8a90058073e0c47ea221db534962eebb9a1",
      "function": "approve(address,uint256)",
      "arguments": [
        "0x0e56B0209400C8b55CD451c0C4ef0CEfed34Aaeb",
        "1000000000"
      ],
      "transaction": {
        "from": "0xc19973532a44da4fb06fcf53ca5be909fde6788f",
        "to": "0xbb4ca8a90058073e0c47ea221db534962eebb9a1",
        "gas": "0x10628",
        "value": "0x0",
        "input": "0x095ea7b30000000000000000000000000e56b0209400c8b55cd451c0c4ef0cefed34aaeb000000000000000000000000000000000000000000000000000000003b9aca00",
        "nonce": "0xe4",
        "chainId": "0xaa36a7"
      },
      "additionalContracts": [],
      "isFixedGasLimit": false
    },
    {
      "hash": "0x923481bc6827455a5d5cf2a7f1f9e75cf3023ef1a61e9c04972029000560e5f3",
      "transactionType": "CALL",
      "contractName": null,
      "contractAddress": "0x0e56b0209400c8b55cd451c0c4ef0cefed34aaeb",
      "function": "createCampaign(address,string,uint256,address,uint256)",
      "arguments": [
        "0x908Dc8D19a5AEb728217688FB940255150662dB3",
        "Ethereum Community",
        "30",
        "0xBb4ca8a90058073e0c47EA221db534962eebB9A1",
        "1000000000"
      ],
      "transaction": {
        "from": "0xc19973532a44da4fb06fcf53ca5be909fde6788f",
        "to": "0x0e56b0209400c8b55cd451c0c4ef0cefed34aaeb",
        "gas": "0xbadcd",
        "value": "0x0",
        "input": "0xa94fda72000000000000000000000000908dc8d19a5aeb728217688fb940255150662db300000000000000000000000000000000000000000000000000000000000000a0000000000000000000000000000000000000000000000000000000000000001e000000000000000000000000bb4ca8a90058073e0c47ea221db534962eebb9a1000000000000000000000000000000000000000000000000000000003b9aca000000000000000000000000000000000000000000000000000000000000000012457468657265756d20436f6d6d756e6974790000000000000000000000000000",
        "nonce": "0xe5",
        "chainId": "0xaa36a7"
      },
      "additionalContracts": [
        {
          "transactionType": "CREATE",
          "address": "0x69548a926121bb02d887fb685dd8e151aba6b13d",
          "initCode": "0x3d602d80600a3d3981f3363d3d373d3d3d363d7376ff75c289858d6d9c16b5573cb39217b345e9bd5af43d82803e903d91602b57fd5bf3"
        }
      ],
      "isFixedGasLimit": false
    },
    {
      "hash": "0x906bdc10bb8002e82d92112f04fd2a3678d63e033247cc23a21483fa23387b22",
      "transactionType": "CALL",
      "contractName": null,
      "contractAddress": "0xbb4ca8a90058073e0c47ea221db534962eebb9a1",
      "function": "approve(address,uint256)",
      "arguments": [
        "0x0e56B0209400C8b55CD451c0C4ef0CEfed34Aaeb",
        "1000000000"
      ],
      "transaction": {
        "from": "0xc19973532a44da4fb06fcf53ca5be909fde6788f",
        "to": "0xbb4ca8a90058073e0c47ea221db534962eebb9a1",
        "gas": "0x10628",
        "value": "0x0",
        "input": "0x095ea7b30000000000000000000000000e56b0209400c8b55cd451c0c4ef0cefed34aaeb000000000000000000000000000000000000000000000000000000003b9aca00",
        "nonce": "0xe6",
        "chainId": "0xaa36a7"
      },
      "additionalContracts": [],
      "isFixedGasLimit": false
    },
    {
      "hash": "0xbd6c6db871a6d69edba16bc5dd0bb8622eb0d25d3b74923e679e3dc856215c0a",
      "transactionType": "CALL",
      "contractName": null,
      "contractAddress": "0x0e56b0209400c8b55cd451c0c4ef0cefed34aaeb",
      "function": "createCampaign(address,string,uint256,address,uint256)",
      "arguments": [
        "0x278D4929173A67E58DFdCd6C89c050BE0007a6b2",
        "Solana Community",
        "30",
        "0xBb4ca8a90058073e0c47EA221db534962eebB9A1",
        "1000000000"
      ],
      "transaction": {
        "from": "0xc19973532a44da4fb06fcf53ca5be909fde6788f",
        "to": "0x0e56b0209400c8b55cd451c0c4ef0cefed34aaeb",
        "gas": "0xbad9a",
        "value": "0x0",
        "input": "0xa94fda72000000000000000000000000278d4929173a67e58dfdcd6c89c050be0007a6b200000000000000000000000000000000000000000000000000000000000000a0000000000000000000000000000000000000000000000000000000000000001e000000000000000000000000bb4ca8a90058073e0c47ea221db534962eebb9a1000000000000000000000000000000000000000000000000000000003b9aca000000000000000000000000000000000000000000000000000000000000000010536f6c616e6120436f6d6d756e69747900000000000000000000000000000000",
        "nonce": "0xe7",
        "chainId": "0xaa36a7"
      },
      "additionalContracts": [
        {
          "transactionType": "CREATE",
          "address": "0xb40484e84d332f31cb9db773bc9524b5a477a5f2",
          "initCode": "0x3d602d80600a3d3981f3363d3d373d3d3d363d7376ff75c289858d6d9c16b5573cb39217b345e9bd5af43d82803e903d91602b57fd5bf3"
        }
      ],
      "isFixedGasLimit": false
    },
    {
      "hash": "0x32dcb85ed3e46725a81e83dd52f56addc9cc4cb3bd5afb1143e0c0b48f00dbd7",
      "transactionType": "CALL",
      "contractName": null,
      "contractAddress": "0xbb4ca8a90058073e0c47ea221db534962eebb9a1",
      "function": "approve(address,uint256)",
      "arguments": [
        "0x0e56B0209400C8b55CD451c0C4ef0CEfed34Aaeb",
        "1000000000"
      ],
      "transaction": {
        "from": "0xc19973532a44da4fb06fcf53ca5be909fde6788f",
        "to": "0xbb4ca8a90058073e0c47ea221db534962eebb9a1",
        "gas": "0x10628",
        "value": "0x0",
        "input": "0x095ea7b30000000000000000000000000e56b0209400c8b55cd451c0c4ef0cefed34aaeb000000000000000000000000000000000000000000000000000000003b9aca00",
        "nonce": "0xe8",
        "chainId": "0xaa36a7"
      },
      "additionalContracts": [],
      "isFixedGasLimit": false
    },
    {
      "hash": "0xfc7bdebb60ebd13a84432f6534fcfb597e286a633cf8f5c18e92b03eac5d8c00",
      "transactionType": "CALL",
      "contractName": null,
      "contractAddress": "0x0e56b0209400c8b55cd451c0c4ef0cefed34aaeb",
      "function": "createCampaign(address,string,uint256,address,uint256)",
      "arguments": [
        "0xe745a35B043437FDE2085f01d67882C07469d02B",
        "Polygon Community",
        "30",
        "0xBb4ca8a90058073e0c47EA221db534962eebB9A1",
        "1000000000"
      ],
      "transaction": {
        "from": "0xc19973532a44da4fb06fcf53ca5be909fde6788f",
        "to": "0x0e56b0209400c8b55cd451c0c4ef0cefed34aaeb",
        "gas": "0xbadbc",
        "value": "0x0",
        "input": "0xa94fda72000000000000000000000000e745a35b043437fde2085f01d67882c07469d02b00000000000000000000000000000000000000000000000000000000000000a0000000000000000000000000000000000000000000000000000000000000001e000000000000000000000000bb4ca8a90058073e0c47ea221db534962eebb9a1000000000000000000000000000000000000000000000000000000003b9aca000000000000000000000000000000000000000000000000000000000000000011506f6c79676f6e20436f6d6d756e697479000000000000000000000000000000",
        "nonce": "0xe9",
        "chainId": "0xaa36a7"
      },
      "additionalContracts": [
        {
          "transactionType": "CREATE",
          "address": "0xe5374a6813df1c457e71c3180fcb37b024b848f3",
          "initCode": "0x3d602d80600a3d3981f3363d3d373d3d3d363d7376ff75c289858d6d9c16b5573cb39217b345e9bd5af43d82803e903d91602b57fd5bf3"
        }
      ],
      "isFixedGasLimit": false
    },
    {
      "hash": "0xf079cae74c3b91560294386931cbe8fd179f1beda809b8c17100134ddc1f8e9d",
      "transactionType": "CALL",
      "contractName": null,
      "contractAddress": "0xbb4ca8a90058073e0c47ea221db534962eebb9a1",
      "function": "approve(address,uint256)",
      "arguments": [
        "0x0e56B0209400C8b55CD451c0C4ef0CEfed34Aaeb",
        "1000000000"
      ],
      "transaction": {
        "from": "0xc19973532a44da4fb06fcf53ca5be909fde6788f",
        "to": "0xbb4ca8a90058073e0c47ea221db534962eebb9a1",
        "gas": "0x10628",
        "value": "0x0",
        "input": "0x095ea7b30000000000000000000000000e56b0209400c8b55cd451c0c4ef0cefed34aaeb000000000000000000000000000000000000000000000000000000003b9aca00",
        "nonce": "0xea",
        "chainId": "0xaa36a7"
      },
      "additionalContracts": [],
      "isFixedGasLimit": false
    },
    {
      "hash": "0x2b0c5798e5314e43163d3af51650ff3edf075e473635b4325ae5307f705acee3",
      "transactionType": "CALL",
      "contractName": null,
      "contractAddress": "0x0e56b0209400c8b55cd451c0c4ef0cefed34aaeb",
      "function": "createCampaign(address,string,uint256,address,uint256)",
      "arguments": [
        "0x2Abc64B25B760f4a17D6a8C56Ea16fc8Bf5Fa127",
        "Arbitrum Community",
        "30",
        "0xBb4ca8a90058073e0c47EA221db534962eebB9A1",
        "1000000000"
      ],
      "transaction": {
        "from": "0xc19973532a44da4fb06fcf53ca5be909fde6788f",
        "to": "0x0e56b0209400c8b55cd451c0c4ef0cefed34aaeb",
        "gas": "0xbadcd",
        "value": "0x0",
        "input": "0xa94fda720000000000000000000000002abc64b25b760f4a17d6a8c56ea16fc8bf5fa12700000000000000000000000000000000000000000000000000000000000000a0000000000000000000000000000000000000000000000000000000000000001e000000000000000000000000bb4ca8a90058073e0c47ea221db534962eebb9a1000000000000000000000000000000000000000000000000000000003b9aca000000000000000000000000000000000000000000000000000000000000000012417262697472756d20436f6d6d756e6974790000000000000000000000000000",
        "nonce": "0xeb",
        "chainId": "0xaa36a7"
      },
      "additionalContracts": [
        {
          "transactionType": "CREATE",
          "address": "0xcdcecad649b7fc3ef6d9f09c489bc705ea97f06d",
          "initCode": "0x3d602d80600a3d3981f3363d3d373d3d3d363d7376ff75c289858d6d9c16b5573cb39217b345e9bd5af43d82803e903d91602b57fd5bf3"
        }
      ],
      "isFixedGasLimit": false
    },
    {
      "hash": "0xa3c70cdc304c0acf87db728fc5bcdccc0b2b7f1a21b2d4606b87c3a73164352f",
      "transactionType": "CALL",
      "contractName": null,
      "contractAddress": "0xbb4ca8a90058073e0c47ea221db534962eebb9a1",
      "function": "approve(address,uint256)",
      "arguments": [
        "0x0e56B0209400C8b55CD451c0C4ef0CEfed34Aaeb",
        "1000000000"
      ],
      "transaction": {
        "from": "0xc19973532a44da4fb06fcf53ca5be909fde6788f",
        "to": "0xbb4ca8a90058073e0c47ea221db534962eebb9a1",
        "gas": "0x10628",
        "value": "0x0",
        "input": "0x095ea7b30000000000000000000000000e56b0209400c8b55cd451c0c4ef0cefed34aaeb000000000000000000000000000000000000000000000000000000003b9aca00",
        "nonce": "0xec",
        "chainId": "0xaa36a7"
      },
      "additionalContracts": [],
      "isFixedGasLimit": false
    },
    {
      "hash": "0xa52814fb436cd63994ea7b72f9d925cf7935e02d355af62b2c7947db20c5d986",
      "transactionType": "CALL",
      "contractName": null,
      "contractAddress": "0x0e56b0209400c8b55cd451c0c4ef0cefed34aaeb",
      "function": "createCampaign(address,string,uint256,address,uint256)",
      "arguments": [
        "0x2ab14e35eACBf5DBE91e10a23D9869C687D24390",
        "Uniswap Community",
        "30",
        "0xBb4ca8a90058073e0c47EA221db534962eebB9A1",
        "1000000000"
      ],
      "transaction": {
        "from": "0xc19973532a44da4fb06fcf53ca5be909fde6788f",
        "to": "0x0e56b0209400c8b55cd451c0c4ef0cefed34aaeb",
        "gas": "0xbadbc",
        "value": "0x0",
        "input": "0xa94fda720000000000000000000000002ab14e35eacbf5dbe91e10a23d9869c687d2439000000000000000000000000000000000000000000000000000000000000000a0000000000000000000000000000000000000000000000000000000000000001e000000000000000000000000bb4ca8a90058073e0c47ea221db534962eebb9a1000000000000000000000000000000000000000000000000000000003b9aca000000000000000000000000000000000000000000000000000000000000000011556e697377617020436f6d6d756e697479000000000000000000000000000000",
        "nonce": "0xed",
        "chainId": "0xaa36a7"
      },
      "additionalContracts": [
        {
          "transactionType": "CREATE",
          "address": "0x073ae39fe7e83f99b0021260039d023c2b4389b4",
          "initCode": "0x3d602d80600a3d3981f3363d3d373d3d3d363d7376ff75c289858d6d9c16b5573cb39217b345e9bd5af43d82803e903d91602b57fd5bf3"
        }
      ],
      "isFixedGasLimit": false
    },
    {
      "hash": "0x11004217a32f5f8ca1a5a3150bbed33c24860957aae55830faf54eea59685d0a",
      "transactionType": "CALL",
      "contractName": null,
      "contractAddress": "0xbb4ca8a90058073e0c47ea221db534962eebb9a1",
      "function": "approve(address,uint256)",
      "arguments": [
        "0x0e56B0209400C8b55CD451c0C4ef0CEfed34Aaeb",
        "1000000000"
      ],
      "transaction": {
        "from": "0xc19973532a44da4fb06fcf53ca5be909fde6788f",
        "to": "0xbb4ca8a90058073e0c47ea221db534962eebb9a1",
        "gas": "0x10628",
        "value": "0x0",
        "input": "0x095ea7b30000000000000000000000000e56b0209400c8b55cd451c0c4ef0cefed34aaeb000000000000000000000000000000000000000000000000000000003b9aca00",
        "nonce": "0xee",
        "chainId": "0xaa36a7"
      },
      "additionalContracts": [],
      "isFixedGasLimit": false
    },
    {
      "hash": "0x638e62472864239612f6aa7a1aad3436a7244887483adb6471f56135f3cdade2",
      "transactionType": "CALL",
      "contractName": null,
      "contractAddress": "0x0e56b0209400c8b55cd451c0c4ef0cefed34aaeb",
      "function": "createCampaign(address,string,uint256,address,uint256)",
      "arguments": [
        "0xa1261E58Fd63548b2787319e3E22AA3Ae0D4EEb9",
        "Aave Community",
        "30",
        "0xBb4ca8a90058073e0c47EA221db534962eebB9A1",
        "1000000000"
      ],
      "transaction": {
        "from": "0xc19973532a44da4fb06fcf53ca5be909fde6788f",
        "to": "0x0e56b0209400c8b55cd451c0c4ef0cefed34aaeb",
        "gas": "0xbad8b",
        "value": "0x0",
        "input": "0xa94fda72000000000000000000000000a1261e58fd63548b2787319e3e22aa3ae0d4eeb900000000000000000000000000000000000000000000000000000000000000a0000000000000000000000000000000000000000000000000000000000000001e000000000000000000000000bb4ca8a90058073e0c47ea221db534962eebb9a1000000000000000000000000000000000000000000000000000000003b9aca00000000000000000000000000000000000000000000000000000000000000000e4161766520436f6d6d756e697479000000000000000000000000000000000000",
        "nonce": "0xef",
        "chainId": "0xaa36a7"
      },
      "additionalContracts": [
        {
          "transactionType": "CREATE",
          "address": "0xc60bcf273a173e3509ce1feed74a206350841c28",
          "initCode": "0x3d602d80600a3d3981f3363d3d373d3d3d363d7376ff75c289858d6d9c16b5573cb39217b345e9bd5af43d82803e903d91602b57fd5bf3"
        }
      ],
      "isFixedGasLimit": false
    },
    {
      "hash": "0xeffa66e4112c0e35af3f474aa082ada015499753d0d2e282bfb4ec7d1f1487d8",
      "transactionType": "CALL",
      "contractName": null,
      "contractAddress": "0xbb4ca8a90058073e0c47ea221db534962eebb9a1",
      "function": "approve(address,uint256)",
      "arguments": [
        "0x0e56B0209400C8b55CD451c0C4ef0CEfed34Aaeb",
        "1000000000"
      ],
      "transaction": {
        "from": "0xc19973532a44da4fb06fcf53ca5be909fde6788f",
        "to": "0xbb4ca8a90058073e0c47ea221db534962eebb9a1",
        "gas": "0x10628",
        "value": "0x0",
        "input": "0x095ea7b30000000000000000000000000e56b0209400c8b55cd451c0c4ef0cefed34aaeb000000000000000000000000000000000000000000000000000000003b9aca00",
        "nonce": "0xf0",
        "chainId": "0xaa36a7"
      },
      "additionalContracts": [],
      "isFixedGasLimit": false
    },
    {
      "hash": "0x33d4a9475f112fbbe468f75d6e11cef745fc191e2ed232855e5a3f4dd2d39b0e",
      "transactionType": "CALL",
      "contractName": null,
      "contractAddress": "0x0e56b0209400c8b55cd451c0c4ef0cefed34aaeb",
      "function": "createCampaign(address,string,uint256,address,uint256)",
      "arguments": [
        "0x6A27EF96Fa7e1AEfF655d7E13Ee38CAe7a12b6Af",
        "OpenSea Community",
        "30",
        "0xBb4ca8a90058073e0c47EA221db534962eebB9A1",
        "1000000000"
      ],
      "transaction": {
        "from": "0xc19973532a44da4fb06fcf53ca5be909fde6788f",
        "to": "0x0e56b0209400c8b55cd451c0c4ef0cefed34aaeb",
        "gas": "0xbadbc",
        "value": "0x0",
        "input": "0xa94fda720000000000000000000000006a27ef96fa7e1aeff655d7e13ee38cae7a12b6af00000000000000000000000000000000000000000000000000000000000000a0000000000000000000000000000000000000000000000000000000000000001e000000000000000000000000bb4ca8a90058073e0c47ea221db534962eebb9a1000000000000000000000000000000000000000000000000000000003b9aca0000000000000000000000000000000000000000000000000000000000000000114f70656e53656120436f6d6d756e697479000000000000000000000000000000",
        "nonce": "0xf1",
        "chainId": "0xaa36a7"
      },
      "additionalContracts": [
        {
          "transactionType": "CREATE",
          "address": "0x265eeb7a1ab0b788b31d4e9a66369bd2a82fc750",
          "initCode": "0x3d602d80600a3d3981f3363d3d373d3d3d363d7376ff75c289858d6d9c16b5573cb39217b345e9bd5af43d82803e903d91602b57fd5bf3"
        }
      ],
      "isFixedGasLimit": false
    },
    {
      "hash": "0x3f7c8dcb57066a96ea3bdef153be2aca2e28779b479d145c959ce34f21d614cc",
      "transactionType": "CALL",
      "contractName": null,
      "contractAddress": "0xbb4ca8a90058073e0c47ea221db534962eebb9a1",
      "function": "approve(address,uint256)",
      "arguments": [
        "0x0e56B0209400C8b55CD451c0C4ef0CEfed34Aaeb",
        "1000000000"
      ],
      "transaction": {
        "from": "0xc19973532a44da4fb06fcf53ca5be909fde6788f",
        "to": "0xbb4ca8a90058073e0c47ea221db534962eebb9a1",
        "gas": "0x10628",
        "value": "0x0",
        "input": "0x095ea7b30000000000000000000000000e56b0209400c8b55cd451c0c4ef0cefed34aaeb000000000000000000000000000000000000000000000000000000003b9aca00",
        "nonce": "0xf2",
        "chainId": "0xaa36a7"
      },
      "additionalContracts": [],
      "isFixedGasLimit": false
    },
    {
      "hash": "0x52cf45fa532c216f1a7e15d1cd172c8262972bdc6b183532eb5fd7d25fa41471",
      "transactionType": "CALL",
      "contractName": null,
      "contractAddress": "0x0e56b0209400c8b55cd451c0c4ef0cefed34aaeb",
      "function": "createCampaign(address,string,uint256,address,uint256)",
      "arguments": [
        "0x4DE3005492b53fbc1eC8477cF7F9eAfb12BA965c",
        "Axie Infinity Community",
        "30",
        "0xBb4ca8a90058073e0c47EA221db534962eebB9A1",
        "1000000000"
      ],
      "transaction": {
        "from": "0xc19973532a44da4fb06fcf53ca5be909fde6788f",
        "to": "0x0e56b0209400c8b55cd451c0c4ef0cefed34aaeb",
        "gas": "0xbae0f",
        "value": "0x0",
        "input": "0xa94fda720000000000000000000000004de3005492b53fbc1ec8477cf7f9eafb12ba965c00000000000000000000000000000000000000000000000000000000000000a0000000000000000000000000000000000000000000000000000000000000001e000000000000000000000000bb4ca8a90058073e0c47ea221db534962eebb9a1000000000000000000000000000000000000000000000000000000003b9aca0000000000000000000000000000000000000000000000000000000000000000174178696520496e66696e69747920436f6d6d756e697479000000000000000000",
        "nonce": "0xf3",
        "chainId": "0xaa36a7"
      },
      "additionalContracts": [
        {
          "transactionType": "CREATE",
          "address": "0xc046ecaa1e899ff466a4b7992467191e5ff101b5",
          "initCode": "0x3d602d80600a3d3981f3363d3d373d3d3d363d7376ff75c289858d6d9c16b5573cb39217b345e9bd5af43d82803e903d91602b57fd5bf3"
        }
      ],
      "isFixedGasLimit": false
    },
    {
      "hash": "0x186591c151db25dfbefc743ed3acc0a153ff2b7b21fc3ee103a0fd6985b44c15",
      "transactionType": "CALL",
      "contractName": null,
      "contractAddress": "0x1c1f6bbeb48b9892f5cc3ab0fdc06bfaaeb2a133",
      "function": "approve(address,uint256)",
      "arguments": [
        "0x0e56B0209400C8b55CD451c0C4ef0CEfed34Aaeb",
        "1000000000000000000"
      ],
      "transaction": {
        "from": "0xc19973532a44da4fb06fcf53ca5be909fde6788f",
        "to": "0x1c1f6bbeb48b9892f5cc3ab0fdc06bfaaeb2a133",
        "gas": "0xf7c9",
        "value": "0x0",
        "input": "0x095ea7b30000000000000000000000000e56b0209400c8b55cd451c0c4ef0cefed34aaeb0000000000000000000000000000000000000000000000000de0b6b3a7640000",
        "nonce": "0xf4",
        "chainId": "0xaa36a7"
      },
      "additionalContracts": [],
      "isFixedGasLimit": false
    },
    {
      "hash": "0xf66a5ed332863e657dbfc163a38f755c38f7fe43ca68341529ef76a1edcabad4",
      "transactionType": "CALL",
      "contractName": null,
      "contractAddress": "0x0e56b0209400c8b55cd451c0c4ef0cefed34aaeb",
      "function": "createCampaign(address,string,uint256,address,uint256)",
      "arguments": [
        "0xdDc47EcfA3595e8773515E13a5B2264E7C293A7b",
        "Crypto Foundation",
        "60",
        "0x1C1f6bBeb48B9892f5CC3Ab0FDC06bfAAeb2a133",
        "1000000000000000000"
      ],
      "transaction": {
        "from": "0xc19973532a44da4fb06fcf53ca5be909fde6788f",
        "to": "0x0e56b0209400c8b55cd451c0c4ef0cefed34aaeb",
        "gas": "0xb9c44",
        "value": "0x0",
        "input": "0xa94fda72000000000000000000000000ddc47ecfa3595e8773515e13a5b2264e7c293a7b00000000000000000000000000000000000000000000000000000000000000a0000000000000000000000000000000000000000000000000000000000000003c0000000000000000000000001c1f6bbeb48b9892f5cc3ab0fdc06bfaaeb2a1330000000000000000000000000000000000000000000000000de0b6b3a7640000000000000000000000000000000000000000000000000000000000000000001143727970746f20466f756e646174696f6e000000000000000000000000000000",
        "nonce": "0xf5",
        "chainId": "0xaa36a7"
      },
      "additionalContracts": [
        {
          "transactionType": "CREATE",
          "address": "0xb3bea3d0d2d96c4240ed75b105eeff6927ca296a",
          "initCode": "0x3d602d80600a3d3981f3363d3d373d3d3d363d7376ff75c289858d6d9c16b5573cb39217b345e9bd5af43d82803e903d91602b57fd5bf3"
        }
      ],
      "isFixedGasLimit": false
    },
    {
      "hash": "0xa8d46487bcd0a6f1d091b06f818a9bbe861782601a3ea7108a28daa6befef637",
      "transactionType": "CALL",
      "contractName": null,
      "contractAddress": "0x1c1f6bbeb48b9892f5cc3ab0fdc06bfaaeb2a133",
      "function": "approve(address,uint256)",
      "arguments": [
        "0x0e56B0209400C8b55CD451c0C4ef0CEfed34Aaeb",
        "1000000000000000000"
      ],
      "transaction": {
        "from": "0xc19973532a44da4fb06fcf53ca5be909fde6788f",
        "to": "0x1c1f6bbeb48b9892f5cc3ab0fdc06bfaaeb2a133",
        "gas": "0xf7c9",
        "value": "0x0",
        "input": "0x095ea7b30000000000000000000000000e56b0209400c8b55cd451c0c4ef0cefed34aaeb0000000000000000000000000000000000000000000000000de0b6b3a7640000",
        "nonce": "0xf6",
        "chainId": "0xaa36a7"
      },
      "additionalContracts": [],
      "isFixedGasLimit": false
    },
    {
      "hash": "0xab5dbd4d39bd2dd8713f4906644333b045cddf832fedcc07aa33939a7d6332db",
      "transactionType": "CALL",
      "contractName": null,
      "contractAddress": "0x0e56b0209400c8b55cd451c0c4ef0cefed34aaeb",
      "function": "createCampaign(address,string,uint256,address,uint256)",
      "arguments": [
        "0x908Dc8D19a5AEb728217688FB940255150662dB3",
        "Crypto Foundation",
        "60",
        "0x1C1f6bBeb48B9892f5CC3Ab0FDC06bfAAeb2a133",
        "1000000000000000000"
      ],
      "transaction": {
        "from": "0xc19973532a44da4fb06fcf53ca5be909fde6788f",
        "to": "0x0e56b0209400c8b55cd451c0c4ef0cefed34aaeb",
        "gas": "0xb9c44",
        "value": "0x0",
        "input": "0xa94fda72000000000000000000000000908dc8d19a5aeb728217688fb940255150662db300000000000000000000000000000000000000000000000000000000000000a0000000000000000000000000000000000000000000000000000000000000003c0000000000000000000000001c1f6bbeb48b9892f5cc3ab0fdc06bfaaeb2a1330000000000000000000000000000000000000000000000000de0b6b3a7640000000000000000000000000000000000000000000000000000000000000000001143727970746f20466f756e646174696f6e000000000000000000000000000000",
        "nonce": "0xf7",
        "chainId": "0xaa36a7"
      },
      "additionalContracts": [
        {
          "transactionType": "CREATE",
          "address": "0x41ea72747da14143bf23524c96e4e9d3241e38d9",
          "initCode": "0x3d602d80600a3d3981f3363d3d373d3d3d363d7376ff75c289858d6d9c16b5573cb39217b345e9bd5af43d82803e903d91602b57fd5bf3"
        }
      ],
      "isFixedGasLimit": false
    }
  ],
  "receipts": [
    {
      "status": "0x1",
      "cumulativeGasUsed": "0xf99b55",
      "logs": [
        {
          "address": "0xbb4ca8a90058073e0c47ea221db534962eebb9a1",
          "topics": [
            "0x8c5be1e5ebec7d5bd14f71427d1e84f3dd0314c0f7b2291e5b200ac8c7c3b925",
            "0x000000000000000000000000c19973532a44da4fb06fcf53ca5be909fde6788f",
            "0x0000000000000000000000000e56b0209400c8b55cd451c0c4ef0cefed34aaeb"
          ],
          "data": "0x000000000000000000000000000000000000000000000000000000003b9aca00",
          "blockHash": "0x1df7f5267de6c5ad799632e5a77ba927a80e7c4fe3d2e462b738a7b3543a3bf3",
          "blockNumber": "0x839ac5",
          "blockTimestamp": "0x685bba6c",
          "transactionHash": "0x2a82fc9cbfbe04dff30d937fcb0dadaca30778bd35cbe4213cfb4a3eb8cd3127",
          "transactionIndex": "0x96",
          "logIndex": "0xe8",
          "removed": false
        }
      ],
      "logsBloom": "0x00000000000000000000000000000000000000000000000000000000000000000000000000000000000000000000000000008000000000000000000000200000000000000000000000000000000000000000000002000000000000000000000000000000000040000000000000000000000000000000000000000000000000000002000000000000000000000000000000000000000000000000000000000000020000000000000000000000400000000000000020000000000000000000000000000000000000000000000000000000000000000000800000000000000000000010000000000000000000000000000000010100000000000000000000000000",
      "type": "0x2",
      "transactionHash": "0x2a82fc9cbfbe04dff30d937fcb0dadaca30778bd35cbe4213cfb4a3eb8cd3127",
      "transactionIndex": "0x96",
      "blockHash": "0x1df7f5267de6c5ad799632e5a77ba927a80e7c4fe3d2e462b738a7b3543a3bf3",
      "blockNumber": "0x839ac5",
      "gasUsed": "0xb341",
      "effectiveGasPrice": "0xc73dd00",
      "from": "0xc19973532a44da4fb06fcf53ca5be909fde6788f",
      "to": "0xbb4ca8a90058073e0c47ea221db534962eebb9a1",
      "contractAddress": null
    },
    {
      "status": "0x1",
      "cumulativeGasUsed": "0x1029571",
      "logs": [
        {
          "address": "0xbb4ca8a90058073e0c47ea221db534962eebb9a1",
          "topics": [
            "0xddf252ad1be2c89b69c2b068fc378daa952ba7f163c4a11628f55a4df523b3ef",
            "0x000000000000000000000000c19973532a44da4fb06fcf53ca5be909fde6788f",
            "0x0000000000000000000000000e56b0209400c8b55cd451c0c4ef0cefed34aaeb"
          ],
          "data": "0x000000000000000000000000000000000000000000000000000000003b9aca00",
          "blockHash": "0x1df7f5267de6c5ad799632e5a77ba927a80e7c4fe3d2e462b738a7b3543a3bf3",
          "blockNumber": "0x839ac5",
          "blockTimestamp": "0x685bba6c",
          "transactionHash": "0x4162e17b166a3f70e3a2d9a3ccd2334467ded15ed28781f14f05f79ab7de317e",
          "transactionIndex": "0x97",
          "logIndex": "0xe9",
          "removed": false
        },
        {
          "address": "0xbb4ca8a90058073e0c47ea221db534962eebb9a1",
          "topics": [
            "0xddf252ad1be2c89b69c2b068fc378daa952ba7f163c4a11628f55a4df523b3ef",
            "0x0000000000000000000000000e56b0209400c8b55cd451c0c4ef0cefed34aaeb",
            "0x0000000000000000000000007699f4f966e406d0cb2458fe807c8d06b8493cbd"
          ],
          "data": "0x000000000000000000000000000000000000000000000000000000003b9aca00",
          "blockHash": "0x1df7f5267de6c5ad799632e5a77ba927a80e7c4fe3d2e462b738a7b3543a3bf3",
          "blockNumber": "0x839ac5",
          "blockTimestamp": "0x685bba6c",
          "transactionHash": "0x4162e17b166a3f70e3a2d9a3ccd2334467ded15ed28781f14f05f79ab7de317e",
          "transactionIndex": "0x97",
          "logIndex": "0xea",
          "removed": false
        },
        {
          "address": "0x7699f4f966e406d0cb2458fe807c8d06b8493cbd",
          "topics": [
            "0x5b2d6d293dc78026829f57e43a7f3bde0d53a6ee3047acaab474c44797a69a42",
            "0x000000000000000000000000ddc47ecfa3595e8773515e13a5b2264e7c293a7b",
            "0x000000000000000000000000c19973532a44da4fb06fcf53ca5be909fde6788f"
          ],
          "data": "0x00000000000000000000000000000000000000000000000000000000000000200000000000000000000000000000000000000000000000000000000000000011426974636f696e20436f6d6d756e697479000000000000000000000000000000",
          "blockHash": "0x1df7f5267de6c5ad799632e5a77ba927a80e7c4fe3d2e462b738a7b3543a3bf3",
          "blockNumber": "0x839ac5",
          "blockTimestamp": "0x685bba6c",
          "transactionHash": "0x4162e17b166a3f70e3a2d9a3ccd2334467ded15ed28781f14f05f79ab7de317e",
          "transactionIndex": "0x97",
          "logIndex": "0xeb",
          "removed": false
        },
        {
          "address": "0x7699f4f966e406d0cb2458fe807c8d06b8493cbd",
          "topics": [
            "0xc7f505b2f371ae2175ee4913f4499e1f2633a7b5936321eed1cdaeb6115181d2"
          ],
          "data": "0x0000000000000000000000000000000000000000000000000000000000000001",
          "blockHash": "0x1df7f5267de6c5ad799632e5a77ba927a80e7c4fe3d2e462b738a7b3543a3bf3",
          "blockNumber": "0x839ac5",
          "blockTimestamp": "0x685bba6c",
          "transactionHash": "0x4162e17b166a3f70e3a2d9a3ccd2334467ded15ed28781f14f05f79ab7de317e",
          "transactionIndex": "0x97",
          "logIndex": "0xec",
          "removed": false
        },
        {
          "address": "0xddc47ecfa3595e8773515e13a5b2264e7c293a7b",
          "topics": [
            "0x64354a8adca46254dbb38db70c062ccdbfb16b62a9c8dad8a4cbee5791ad63ee",
            "0x0000000000000000000000007699f4f966e406d0cb2458fe807c8d06b8493cbd"
          ],
          "data": "0x",
          "blockHash": "0x1df7f5267de6c5ad799632e5a77ba927a80e7c4fe3d2e462b738a7b3543a3bf3",
          "blockNumber": "0x839ac5",
          "blockTimestamp": "0x685bba6c",
          "transactionHash": "0x4162e17b166a3f70e3a2d9a3ccd2334467ded15ed28781f14f05f79ab7de317e",
          "transactionIndex": "0x97",
          "logIndex": "0xed",
          "removed": false
        },
        {
          "address": "0x0e56b0209400c8b55cd451c0c4ef0cefed34aaeb",
          "topics": [
            "0xd5a2533ccae787571f4de1e33b50f1598d31e90adf0aed5d1bf3e73534571bfa",
            "0x0000000000000000000000007699f4f966e406d0cb2458fe807c8d06b8493cbd",
            "0x000000000000000000000000ddc47ecfa3595e8773515e13a5b2264e7c293a7b",
            "0x000000000000000000000000c19973532a44da4fb06fcf53ca5be909fde6788f"
          ],
          "data": "0x00000000000000000000000000000000000000000000000000000000000000200000000000000000000000000000000000000000000000000000000000000011426974636f696e20436f6d6d756e697479000000000000000000000000000000",
          "blockHash": "0x1df7f5267de6c5ad799632e5a77ba927a80e7c4fe3d2e462b738a7b3543a3bf3",
          "blockNumber": "0x839ac5",
          "blockTimestamp": "0x685bba6c",
          "transactionHash": "0x4162e17b166a3f70e3a2d9a3ccd2334467ded15ed28781f14f05f79ab7de317e",
          "transactionIndex": "0x97",
          "logIndex": "0xee",
          "removed": false
        }
      ],
      "logsBloom": "0x00000000000000000200000000400002000000000000000000000410000000000000000000004000000000000000001000008000000800000000000000000000000200000000000000000008000000000040001002000000000000000000404000000000000041400000000000000000400000000000000000004010000000000002000000000800000800000000000000000000000080000000000002000000000000000000000000000000400000000000000020000000000000020000000000000002100000000001000000000000000000000004800000000000000000020000000000000000000000000000000000010100000000000200000000000000",
      "type": "0x2",
      "transactionHash": "0x4162e17b166a3f70e3a2d9a3ccd2334467ded15ed28781f14f05f79ab7de317e",
      "transactionIndex": "0x97",
      "blockHash": "0x1df7f5267de6c5ad799632e5a77ba927a80e7c4fe3d2e462b738a7b3543a3bf3",
      "blockNumber": "0x839ac5",
      "gasUsed": "0x8fa1c",
      "effectiveGasPrice": "0xc73dd00",
      "from": "0xc19973532a44da4fb06fcf53ca5be909fde6788f",
      "to": "0x0e56b0209400c8b55cd451c0c4ef0cefed34aaeb",
      "contractAddress": null
    },
    {
      "status": "0x1",
      "cumulativeGasUsed": "0x10348b2",
      "logs": [
        {
          "address": "0xbb4ca8a90058073e0c47ea221db534962eebb9a1",
          "topics": [
            "0x8c5be1e5ebec7d5bd14f71427d1e84f3dd0314c0f7b2291e5b200ac8c7c3b925",
            "0x000000000000000000000000c19973532a44da4fb06fcf53ca5be909fde6788f",
            "0x0000000000000000000000000e56b0209400c8b55cd451c0c4ef0cefed34aaeb"
          ],
          "data": "0x000000000000000000000000000000000000000000000000000000003b9aca00",
          "blockHash": "0x1df7f5267de6c5ad799632e5a77ba927a80e7c4fe3d2e462b738a7b3543a3bf3",
          "blockNumber": "0x839ac5",
          "blockTimestamp": "0x685bba6c",
          "transactionHash": "0x5aa3a599d1ac3da5a34b489eb8c7ba888a62ae4e0387354d23d384ac6ee5d09e",
          "transactionIndex": "0x98",
          "logIndex": "0xef",
          "removed": false
        }
      ],
      "logsBloom": "0x00000000000000000000000000000000000000000000000000000000000000000000000000000000000000000000000000008000000000000000000000200000000000000000000000000000000000000000000002000000000000000000000000000000000040000000000000000000000000000000000000000000000000000002000000000000000000000000000000000000000000000000000000000000020000000000000000000000400000000000000020000000000000000000000000000000000000000000000000000000000000000000800000000000000000000010000000000000000000000000000000010100000000000000000000000000",
      "type": "0x2",
      "transactionHash": "0x5aa3a599d1ac3da5a34b489eb8c7ba888a62ae4e0387354d23d384ac6ee5d09e",
      "transactionIndex": "0x98",
      "blockHash": "0x1df7f5267de6c5ad799632e5a77ba927a80e7c4fe3d2e462b738a7b3543a3bf3",
      "blockNumber": "0x839ac5",
      "gasUsed": "0xb341",
      "effectiveGasPrice": "0xc73dd00",
      "from": "0xc19973532a44da4fb06fcf53ca5be909fde6788f",
      "to": "0xbb4ca8a90058073e0c47ea221db534962eebb9a1",
      "contractAddress": null
    },
    {
      "status": "0x1",
      "cumulativeGasUsed": "0x10bbd42",
      "logs": [
        {
          "address": "0xbb4ca8a90058073e0c47ea221db534962eebb9a1",
          "topics": [
            "0xddf252ad1be2c89b69c2b068fc378daa952ba7f163c4a11628f55a4df523b3ef",
            "0x000000000000000000000000c19973532a44da4fb06fcf53ca5be909fde6788f",
            "0x0000000000000000000000000e56b0209400c8b55cd451c0c4ef0cefed34aaeb"
          ],
          "data": "0x000000000000000000000000000000000000000000000000000000003b9aca00",
          "blockHash": "0x1df7f5267de6c5ad799632e5a77ba927a80e7c4fe3d2e462b738a7b3543a3bf3",
          "blockNumber": "0x839ac5",
          "blockTimestamp": "0x685bba6c",
          "transactionHash": "0x923481bc6827455a5d5cf2a7f1f9e75cf3023ef1a61e9c04972029000560e5f3",
          "transactionIndex": "0x99",
          "logIndex": "0xf0",
          "removed": false
        },
        {
          "address": "0xbb4ca8a90058073e0c47ea221db534962eebb9a1",
          "topics": [
            "0xddf252ad1be2c89b69c2b068fc378daa952ba7f163c4a11628f55a4df523b3ef",
            "0x0000000000000000000000000e56b0209400c8b55cd451c0c4ef0cefed34aaeb",
            "0x00000000000000000000000069548a926121bb02d887fb685dd8e151aba6b13d"
          ],
          "data": "0x000000000000000000000000000000000000000000000000000000003b9aca00",
          "blockHash": "0x1df7f5267de6c5ad799632e5a77ba927a80e7c4fe3d2e462b738a7b3543a3bf3",
          "blockNumber": "0x839ac5",
          "blockTimestamp": "0x685bba6c",
          "transactionHash": "0x923481bc6827455a5d5cf2a7f1f9e75cf3023ef1a61e9c04972029000560e5f3",
          "transactionIndex": "0x99",
          "logIndex": "0xf1",
          "removed": false
        },
        {
          "address": "0x69548a926121bb02d887fb685dd8e151aba6b13d",
          "topics": [
            "0x5b2d6d293dc78026829f57e43a7f3bde0d53a6ee3047acaab474c44797a69a42",
            "0x000000000000000000000000908dc8d19a5aeb728217688fb940255150662db3",
            "0x000000000000000000000000c19973532a44da4fb06fcf53ca5be909fde6788f"
          ],
          "data": "0x00000000000000000000000000000000000000000000000000000000000000200000000000000000000000000000000000000000000000000000000000000012457468657265756d20436f6d6d756e6974790000000000000000000000000000",
          "blockHash": "0x1df7f5267de6c5ad799632e5a77ba927a80e7c4fe3d2e462b738a7b3543a3bf3",
          "blockNumber": "0x839ac5",
          "blockTimestamp": "0x685bba6c",
          "transactionHash": "0x923481bc6827455a5d5cf2a7f1f9e75cf3023ef1a61e9c04972029000560e5f3",
          "transactionIndex": "0x99",
          "logIndex": "0xf2",
          "removed": false
        },
        {
          "address": "0x69548a926121bb02d887fb685dd8e151aba6b13d",
          "topics": [
            "0xc7f505b2f371ae2175ee4913f4499e1f2633a7b5936321eed1cdaeb6115181d2"
          ],
          "data": "0x0000000000000000000000000000000000000000000000000000000000000001",
          "blockHash": "0x1df7f5267de6c5ad799632e5a77ba927a80e7c4fe3d2e462b738a7b3543a3bf3",
          "blockNumber": "0x839ac5",
          "blockTimestamp": "0x685bba6c",
          "transactionHash": "0x923481bc6827455a5d5cf2a7f1f9e75cf3023ef1a61e9c04972029000560e5f3",
          "transactionIndex": "0x99",
          "logIndex": "0xf3",
          "removed": false
        },
        {
          "address": "0x908dc8d19a5aeb728217688fb940255150662db3",
          "topics": [
            "0x64354a8adca46254dbb38db70c062ccdbfb16b62a9c8dad8a4cbee5791ad63ee",
            "0x00000000000000000000000069548a926121bb02d887fb685dd8e151aba6b13d"
          ],
          "data": "0x",
          "blockHash": "0x1df7f5267de6c5ad799632e5a77ba927a80e7c4fe3d2e462b738a7b3543a3bf3",
          "blockNumber": "0x839ac5",
          "blockTimestamp": "0x685bba6c",
          "transactionHash": "0x923481bc6827455a5d5cf2a7f1f9e75cf3023ef1a61e9c04972029000560e5f3",
          "transactionIndex": "0x99",
          "logIndex": "0xf4",
          "removed": false
        },
        {
          "address": "0x0e56b0209400c8b55cd451c0c4ef0cefed34aaeb",
          "topics": [
            "0xd5a2533ccae787571f4de1e33b50f1598d31e90adf0aed5d1bf3e73534571bfa",
            "0x00000000000000000000000069548a926121bb02d887fb685dd8e151aba6b13d",
            "0x000000000000000000000000908dc8d19a5aeb728217688fb940255150662db3",
            "0x000000000000000000000000c19973532a44da4fb06fcf53ca5be909fde6788f"
          ],
          "data": "0x00000000000000000000000000000000000000000000000000000000000000200000000000000000000000000000000000000000000000000000000000000012457468657265756d20436f6d6d756e6974790000000000000000000000000000",
          "blockHash": "0x1df7f5267de6c5ad799632e5a77ba927a80e7c4fe3d2e462b738a7b3543a3bf3",
          "blockNumber": "0x839ac5",
          "blockTimestamp": "0x685bba6c",
          "transactionHash": "0x923481bc6827455a5d5cf2a7f1f9e75cf3023ef1a61e9c04972029000560e5f3",
          "transactionIndex": "0x99",
          "logIndex": "0xf5",
          "removed": false
        }
      ],
      "logsBloom": "0x0000000000000000004000000000000000000000000000000000041000000000000000000800000000000000000000100000c0000008000000000000000000000002000000000000000000080000000000000010020000000000000000000040000000000000c0000000000000000080000000000000000000004010001800000002000001100800000800000000020000000000000080000000000000000000000000000000000000000000400000000000000020000800000000000000000020000002100000000000000000000000000000000004800000000000000000020000000000000000000000000000000000010100000000000200000000000000",
      "type": "0x2",
      "transactionHash": "0x923481bc6827455a5d5cf2a7f1f9e75cf3023ef1a61e9c04972029000560e5f3",
      "transactionIndex": "0x99",
      "blockHash": "0x1df7f5267de6c5ad799632e5a77ba927a80e7c4fe3d2e462b738a7b3543a3bf3",
      "blockNumber": "0x839ac5",
      "gasUsed": "0x87490",
      "effectiveGasPrice": "0xc73dd00",
      "from": "0xc19973532a44da4fb06fcf53ca5be909fde6788f",
      "to": "0x0e56b0209400c8b55cd451c0c4ef0cefed34aaeb",
      "contractAddress": null
    },
    {
      "status": "0x1",
      "cumulativeGasUsed": "0x10c7083",
      "logs": [
        {
          "address": "0xbb4ca8a90058073e0c47ea221db534962eebb9a1",
          "topics": [
            "0x8c5be1e5ebec7d5bd14f71427d1e84f3dd0314c0f7b2291e5b200ac8c7c3b925",
            "0x000000000000000000000000c19973532a44da4fb06fcf53ca5be909fde6788f",
            "0x0000000000000000000000000e56b0209400c8b55cd451c0c4ef0cefed34aaeb"
          ],
          "data": "0x000000000000000000000000000000000000000000000000000000003b9aca00",
          "blockHash": "0x1df7f5267de6c5ad799632e5a77ba927a80e7c4fe3d2e462b738a7b3543a3bf3",
          "blockNumber": "0x839ac5",
          "blockTimestamp": "0x685bba6c",
          "transactionHash": "0x906bdc10bb8002e82d92112f04fd2a3678d63e033247cc23a21483fa23387b22",
          "transactionIndex": "0x9a",
          "logIndex": "0xf6",
          "removed": false
        }
      ],
      "logsBloom": "0x00000000000000000000000000000000000000000000000000000000000000000000000000000000000000000000000000008000000000000000000000200000000000000000000000000000000000000000000002000000000000000000000000000000000040000000000000000000000000000000000000000000000000000002000000000000000000000000000000000000000000000000000000000000020000000000000000000000400000000000000020000000000000000000000000000000000000000000000000000000000000000000800000000000000000000010000000000000000000000000000000010100000000000000000000000000",
      "type": "0x2",
      "transactionHash": "0x906bdc10bb8002e82d92112f04fd2a3678d63e033247cc23a21483fa23387b22",
      "transactionIndex": "0x9a",
      "blockHash": "0x1df7f5267de6c5ad799632e5a77ba927a80e7c4fe3d2e462b738a7b3543a3bf3",
      "blockNumber": "0x839ac5",
      "gasUsed": "0xb341",
      "effectiveGasPrice": "0xc73dd00",
      "from": "0xc19973532a44da4fb06fcf53ca5be909fde6788f",
      "to": "0xbb4ca8a90058073e0c47ea221db534962eebb9a1",
      "contractAddress": null
    },
    {
      "status": "0x1",
      "cumulativeGasUsed": "0x114e4ef",
      "logs": [
        {
          "address": "0xbb4ca8a90058073e0c47ea221db534962eebb9a1",
          "topics": [
            "0xddf252ad1be2c89b69c2b068fc378daa952ba7f163c4a11628f55a4df523b3ef",
            "0x000000000000000000000000c19973532a44da4fb06fcf53ca5be909fde6788f",
            "0x0000000000000000000000000e56b0209400c8b55cd451c0c4ef0cefed34aaeb"
          ],
          "data": "0x000000000000000000000000000000000000000000000000000000003b9aca00",
          "blockHash": "0x1df7f5267de6c5ad799632e5a77ba927a80e7c4fe3d2e462b738a7b3543a3bf3",
          "blockNumber": "0x839ac5",
          "blockTimestamp": "0x685bba6c",
          "transactionHash": "0xbd6c6db871a6d69edba16bc5dd0bb8622eb0d25d3b74923e679e3dc856215c0a",
          "transactionIndex": "0x9b",
          "logIndex": "0xf7",
          "removed": false
        },
        {
          "address": "0xbb4ca8a90058073e0c47ea221db534962eebb9a1",
          "topics": [
            "0xddf252ad1be2c89b69c2b068fc378daa952ba7f163c4a11628f55a4df523b3ef",
            "0x0000000000000000000000000e56b0209400c8b55cd451c0c4ef0cefed34aaeb",
            "0x000000000000000000000000b40484e84d332f31cb9db773bc9524b5a477a5f2"
          ],
          "data": "0x000000000000000000000000000000000000000000000000000000003b9aca00",
          "blockHash": "0x1df7f5267de6c5ad799632e5a77ba927a80e7c4fe3d2e462b738a7b3543a3bf3",
          "blockNumber": "0x839ac5",
          "blockTimestamp": "0x685bba6c",
          "transactionHash": "0xbd6c6db871a6d69edba16bc5dd0bb8622eb0d25d3b74923e679e3dc856215c0a",
          "transactionIndex": "0x9b",
          "logIndex": "0xf8",
          "removed": false
        },
        {
          "address": "0xb40484e84d332f31cb9db773bc9524b5a477a5f2",
          "topics": [
            "0x5b2d6d293dc78026829f57e43a7f3bde0d53a6ee3047acaab474c44797a69a42",
            "0x000000000000000000000000278d4929173a67e58dfdcd6c89c050be0007a6b2",
            "0x000000000000000000000000c19973532a44da4fb06fcf53ca5be909fde6788f"
          ],
          "data": "0x00000000000000000000000000000000000000000000000000000000000000200000000000000000000000000000000000000000000000000000000000000010536f6c616e6120436f6d6d756e69747900000000000000000000000000000000",
          "blockHash": "0x1df7f5267de6c5ad799632e5a77ba927a80e7c4fe3d2e462b738a7b3543a3bf3",
          "blockNumber": "0x839ac5",
          "blockTimestamp": "0x685bba6c",
          "transactionHash": "0xbd6c6db871a6d69edba16bc5dd0bb8622eb0d25d3b74923e679e3dc856215c0a",
          "transactionIndex": "0x9b",
          "logIndex": "0xf9",
          "removed": false
        },
        {
          "address": "0xb40484e84d332f31cb9db773bc9524b5a477a5f2",
          "topics": [
            "0xc7f505b2f371ae2175ee4913f4499e1f2633a7b5936321eed1cdaeb6115181d2"
          ],
          "data": "0x0000000000000000000000000000000000000000000000000000000000000001",
          "blockHash": "0x1df7f5267de6c5ad799632e5a77ba927a80e7c4fe3d2e462b738a7b3543a3bf3",
          "blockNumber": "0x839ac5",
          "blockTimestamp": "0x685bba6c",
          "transactionHash": "0xbd6c6db871a6d69edba16bc5dd0bb8622eb0d25d3b74923e679e3dc856215c0a",
          "transactionIndex": "0x9b",
          "logIndex": "0xfa",
          "removed": false
        },
        {
          "address": "0x278d4929173a67e58dfdcd6c89c050be0007a6b2",
          "topics": [
            "0x64354a8adca46254dbb38db70c062ccdbfb16b62a9c8dad8a4cbee5791ad63ee",
            "0x000000000000000000000000b40484e84d332f31cb9db773bc9524b5a477a5f2"
          ],
          "data": "0x",
          "blockHash": "0x1df7f5267de6c5ad799632e5a77ba927a80e7c4fe3d2e462b738a7b3543a3bf3",
          "blockNumber": "0x839ac5",
          "blockTimestamp": "0x685bba6c",
          "transactionHash": "0xbd6c6db871a6d69edba16bc5dd0bb8622eb0d25d3b74923e679e3dc856215c0a",
          "transactionIndex": "0x9b",
          "logIndex": "0xfb",
          "removed": false
        },
        {
          "address": "0x0e56b0209400c8b55cd451c0c4ef0cefed34aaeb",
          "topics": [
            "0xd5a2533ccae787571f4de1e33b50f1598d31e90adf0aed5d1bf3e73534571bfa",
            "0x000000000000000000000000b40484e84d332f31cb9db773bc9524b5a477a5f2",
            "0x000000000000000000000000278d4929173a67e58dfdcd6c89c050be0007a6b2",
            "0x000000000000000000000000c19973532a44da4fb06fcf53ca5be909fde6788f"
          ],
          "data": "0x00000000000000000000000000000000000000000000000000000000000000200000000000000000000000000000000000000000000000000000000000000010536f6c616e6120436f6d6d756e69747900000000000000000000000000000000",
          "blockHash": "0x1df7f5267de6c5ad799632e5a77ba927a80e7c4fe3d2e462b738a7b3543a3bf3",
          "blockNumber": "0x839ac5",
          "blockTimestamp": "0x685bba6c",
          "transactionHash": "0xbd6c6db871a6d69edba16bc5dd0bb8622eb0d25d3b74923e679e3dc856215c0a",
          "transactionIndex": "0x9b",
          "logIndex": "0xfc",
          "removed": false
        }
      ],
      "logsBloom": "0x00000000000000000000000000000200000000000000000000000410000000001000000000000000000000000000001000018000000800000000000000000010000200000000000000000008000000000000001002000000000000002000004000000000010040000000000000000000000000000000000000004010000000000002001000000800000810000020000000000000000080000000000000000000000000000000000000000000400000000000100020000000000000000000000000000002100000000000000000000000000000000004800000000000000000020000000000000000000000000000000000010100004000000200080000000000",
      "type": "0x2",
      "transactionHash": "0xbd6c6db871a6d69edba16bc5dd0bb8622eb0d25d3b74923e679e3dc856215c0a",
      "transactionIndex": "0x9b",
      "blockHash": "0x1df7f5267de6c5ad799632e5a77ba927a80e7c4fe3d2e462b738a7b3543a3bf3",
      "blockNumber": "0x839ac5",
      "gasUsed": "0x8746c",
      "effectiveGasPrice": "0xc73dd00",
      "from": "0xc19973532a44da4fb06fcf53ca5be909fde6788f",
      "to": "0x0e56b0209400c8b55cd451c0c4ef0cefed34aaeb",
      "contractAddress": null
    },
    {
      "status": "0x1",
      "cumulativeGasUsed": "0x1159830",
      "logs": [
        {
          "address": "0xbb4ca8a90058073e0c47ea221db534962eebb9a1",
          "topics": [
            "0x8c5be1e5ebec7d5bd14f71427d1e84f3dd0314c0f7b2291e5b200ac8c7c3b925",
            "0x000000000000000000000000c19973532a44da4fb06fcf53ca5be909fde6788f",
            "0x0000000000000000000000000e56b0209400c8b55cd451c0c4ef0cefed34aaeb"
          ],
          "data": "0x000000000000000000000000000000000000000000000000000000003b9aca00",
          "blockHash": "0x1df7f5267de6c5ad799632e5a77ba927a80e7c4fe3d2e462b738a7b3543a3bf3",
          "blockNumber": "0x839ac5",
          "blockTimestamp": "0x685bba6c",
          "transactionHash": "0x32dcb85ed3e46725a81e83dd52f56addc9cc4cb3bd5afb1143e0c0b48f00dbd7",
          "transactionIndex": "0x9c",
          "logIndex": "0xfd",
          "removed": false
        }
      ],
      "logsBloom": "0x00000000000000000000000000000000000000000000000000000000000000000000000000000000000000000000000000008000000000000000000000200000000000000000000000000000000000000000000002000000000000000000000000000000000040000000000000000000000000000000000000000000000000000002000000000000000000000000000000000000000000000000000000000000020000000000000000000000400000000000000020000000000000000000000000000000000000000000000000000000000000000000800000000000000000000010000000000000000000000000000000010100000000000000000000000000",
      "type": "0x2",
      "transactionHash": "0x32dcb85ed3e46725a81e83dd52f56addc9cc4cb3bd5afb1143e0c0b48f00dbd7",
      "transactionIndex": "0x9c",
      "blockHash": "0x1df7f5267de6c5ad799632e5a77ba927a80e7c4fe3d2e462b738a7b3543a3bf3",
      "blockNumber": "0x839ac5",
      "gasUsed": "0xb341",
      "effectiveGasPrice": "0xc73dd00",
      "from": "0xc19973532a44da4fb06fcf53ca5be909fde6788f",
      "to": "0xbb4ca8a90058073e0c47ea221db534962eebb9a1",
      "contractAddress": null
    },
    {
      "status": "0x1",
      "cumulativeGasUsed": "0x11e0cb4",
      "logs": [
        {
          "address": "0xbb4ca8a90058073e0c47ea221db534962eebb9a1",
          "topics": [
            "0xddf252ad1be2c89b69c2b068fc378daa952ba7f163c4a11628f55a4df523b3ef",
            "0x000000000000000000000000c19973532a44da4fb06fcf53ca5be909fde6788f",
            "0x0000000000000000000000000e56b0209400c8b55cd451c0c4ef0cefed34aaeb"
          ],
          "data": "0x000000000000000000000000000000000000000000000000000000003b9aca00",
          "blockHash": "0x1df7f5267de6c5ad799632e5a77ba927a80e7c4fe3d2e462b738a7b3543a3bf3",
          "blockNumber": "0x839ac5",
          "blockTimestamp": "0x685bba6c",
          "transactionHash": "0xfc7bdebb60ebd13a84432f6534fcfb597e286a633cf8f5c18e92b03eac5d8c00",
          "transactionIndex": "0x9d",
          "logIndex": "0xfe",
          "removed": false
        },
        {
          "address": "0xbb4ca8a90058073e0c47ea221db534962eebb9a1",
          "topics": [
            "0xddf252ad1be2c89b69c2b068fc378daa952ba7f163c4a11628f55a4df523b3ef",
            "0x0000000000000000000000000e56b0209400c8b55cd451c0c4ef0cefed34aaeb",
            "0x000000000000000000000000e5374a6813df1c457e71c3180fcb37b024b848f3"
          ],
          "data": "0x000000000000000000000000000000000000000000000000000000003b9aca00",
          "blockHash": "0x1df7f5267de6c5ad799632e5a77ba927a80e7c4fe3d2e462b738a7b3543a3bf3",
          "blockNumber": "0x839ac5",
          "blockTimestamp": "0x685bba6c",
          "transactionHash": "0xfc7bdebb60ebd13a84432f6534fcfb597e286a633cf8f5c18e92b03eac5d8c00",
          "transactionIndex": "0x9d",
          "logIndex": "0xff",
          "removed": false
        },
        {
          "address": "0xe5374a6813df1c457e71c3180fcb37b024b848f3",
          "topics": [
            "0x5b2d6d293dc78026829f57e43a7f3bde0d53a6ee3047acaab474c44797a69a42",
            "0x000000000000000000000000e745a35b043437fde2085f01d67882c07469d02b",
            "0x000000000000000000000000c19973532a44da4fb06fcf53ca5be909fde6788f"
          ],
          "data": "0x00000000000000000000000000000000000000000000000000000000000000200000000000000000000000000000000000000000000000000000000000000011506f6c79676f6e20436f6d6d756e697479000000000000000000000000000000",
          "blockHash": "0x1df7f5267de6c5ad799632e5a77ba927a80e7c4fe3d2e462b738a7b3543a3bf3",
          "blockNumber": "0x839ac5",
          "blockTimestamp": "0x685bba6c",
          "transactionHash": "0xfc7bdebb60ebd13a84432f6534fcfb597e286a633cf8f5c18e92b03eac5d8c00",
          "transactionIndex": "0x9d",
          "logIndex": "0x100",
          "removed": false
        },
        {
          "address": "0xe5374a6813df1c457e71c3180fcb37b024b848f3",
          "topics": [
            "0xc7f505b2f371ae2175ee4913f4499e1f2633a7b5936321eed1cdaeb6115181d2"
          ],
          "data": "0x0000000000000000000000000000000000000000000000000000000000000001",
          "blockHash": "0x1df7f5267de6c5ad799632e5a77ba927a80e7c4fe3d2e462b738a7b3543a3bf3",
          "blockNumber": "0x839ac5",
          "blockTimestamp": "0x685bba6c",
          "transactionHash": "0xfc7bdebb60ebd13a84432f6534fcfb597e286a633cf8f5c18e92b03eac5d8c00",
          "transactionIndex": "0x9d",
          "logIndex": "0x101",
          "removed": false
        },
        {
          "address": "0xe745a35b043437fde2085f01d67882c07469d02b",
          "topics": [
            "0x64354a8adca46254dbb38db70c062ccdbfb16b62a9c8dad8a4cbee5791ad63ee",
            "0x000000000000000000000000e5374a6813df1c457e71c3180fcb37b024b848f3"
          ],
          "data": "0x",
          "blockHash": "0x1df7f5267de6c5ad799632e5a77ba927a80e7c4fe3d2e462b738a7b3543a3bf3",
          "blockNumber": "0x839ac5",
          "blockTimestamp": "0x685bba6c",
          "transactionHash": "0xfc7bdebb60ebd13a84432f6534fcfb597e286a633cf8f5c18e92b03eac5d8c00",
          "transactionIndex": "0x9d",
          "logIndex": "0x102",
          "removed": false
        },
        {
          "address": "0x0e56b0209400c8b55cd451c0c4ef0cefed34aaeb",
          "topics": [
            "0xd5a2533ccae787571f4de1e33b50f1598d31e90adf0aed5d1bf3e73534571bfa",
            "0x000000000000000000000000e5374a6813df1c457e71c3180fcb37b024b848f3",
            "0x000000000000000000000000e745a35b043437fde2085f01d67882c07469d02b",
            "0x000000000000000000000000c19973532a44da4fb06fcf53ca5be909fde6788f"
          ],
          "data": "0x00000000000000000000000000000000000000000000000000000000000000200000000000000000000000000000000000000000000000000000000000000011506f6c79676f6e20436f6d6d756e697479000000000000000000000000000000",
          "blockHash": "0x1df7f5267de6c5ad799632e5a77ba927a80e7c4fe3d2e462b738a7b3543a3bf3",
          "blockNumber": "0x839ac5",
          "blockTimestamp": "0x685bba6c",
          "transactionHash": "0xfc7bdebb60ebd13a84432f6534fcfb597e286a633cf8f5c18e92b03eac5d8c00",
          "transactionIndex": "0x9d",
          "logIndex": "0x103",
          "removed": false
        }
      ],
      "logsBloom": "0x00000000000000000000000000000000000100000000000000000410000000000000000000000800400000000000001000008000000810000000000000400000000200000000000000000008000000000000001002000000000000000000004000000000000040004000000000000040000000000000000000004010000000000002000000000800000800000000000000000000200080000000000000004000000000000000000000000000400000000002000020000000000000000000000000000002100000000000000000000000000000000004800000000000000000020000000000000000000000000000000000010100100000000200000800000000",
      "type": "0x2",
      "transactionHash": "0xfc7bdebb60ebd13a84432f6534fcfb597e286a633cf8f5c18e92b03eac5d8c00",
      "transactionIndex": "0x9d",
      "blockHash": "0x1df7f5267de6c5ad799632e5a77ba927a80e7c4fe3d2e462b738a7b3543a3bf3",
      "blockNumber": "0x839ac5",
      "gasUsed": "0x87484",
      "effectiveGasPrice": "0xc73dd00",
      "from": "0xc19973532a44da4fb06fcf53ca5be909fde6788f",
      "to": "0x0e56b0209400c8b55cd451c0c4ef0cefed34aaeb",
      "contractAddress": null
    },
    {
      "status": "0x1",
      "cumulativeGasUsed": "0x11ebff5",
      "logs": [
        {
          "address": "0xbb4ca8a90058073e0c47ea221db534962eebb9a1",
          "topics": [
            "0x8c5be1e5ebec7d5bd14f71427d1e84f3dd0314c0f7b2291e5b200ac8c7c3b925",
            "0x000000000000000000000000c19973532a44da4fb06fcf53ca5be909fde6788f",
            "0x0000000000000000000000000e56b0209400c8b55cd451c0c4ef0cefed34aaeb"
          ],
          "data": "0x000000000000000000000000000000000000000000000000000000003b9aca00",
          "blockHash": "0x1df7f5267de6c5ad799632e5a77ba927a80e7c4fe3d2e462b738a7b3543a3bf3",
          "blockNumber": "0x839ac5",
          "blockTimestamp": "0x685bba6c",
          "transactionHash": "0xf079cae74c3b91560294386931cbe8fd179f1beda809b8c17100134ddc1f8e9d",
          "transactionIndex": "0x9e",
          "logIndex": "0x104",
          "removed": false
        }
      ],
      "logsBloom": "0x00000000000000000000000000000000000000000000000000000000000000000000000000000000000000000000000000008000000000000000000000200000000000000000000000000000000000000000000002000000000000000000000000000000000040000000000000000000000000000000000000000000000000000002000000000000000000000000000000000000000000000000000000000000020000000000000000000000400000000000000020000000000000000000000000000000000000000000000000000000000000000000800000000000000000000010000000000000000000000000000000010100000000000000000000000000",
      "type": "0x2",
      "transactionHash": "0xf079cae74c3b91560294386931cbe8fd179f1beda809b8c17100134ddc1f8e9d",
      "transactionIndex": "0x9e",
      "blockHash": "0x1df7f5267de6c5ad799632e5a77ba927a80e7c4fe3d2e462b738a7b3543a3bf3",
      "blockNumber": "0x839ac5",
      "gasUsed": "0xb341",
      "effectiveGasPrice": "0xc73dd00",
      "from": "0xc19973532a44da4fb06fcf53ca5be909fde6788f",
      "to": "0xbb4ca8a90058073e0c47ea221db534962eebb9a1",
      "contractAddress": null
    },
    {
      "status": "0x1",
      "cumulativeGasUsed": "0x1273485",
      "logs": [
        {
          "address": "0xbb4ca8a90058073e0c47ea221db534962eebb9a1",
          "topics": [
            "0xddf252ad1be2c89b69c2b068fc378daa952ba7f163c4a11628f55a4df523b3ef",
            "0x000000000000000000000000c19973532a44da4fb06fcf53ca5be909fde6788f",
            "0x0000000000000000000000000e56b0209400c8b55cd451c0c4ef0cefed34aaeb"
          ],
          "data": "0x000000000000000000000000000000000000000000000000000000003b9aca00",
          "blockHash": "0x1df7f5267de6c5ad799632e5a77ba927a80e7c4fe3d2e462b738a7b3543a3bf3",
          "blockNumber": "0x839ac5",
          "blockTimestamp": "0x685bba6c",
          "transactionHash": "0x2b0c5798e5314e43163d3af51650ff3edf075e473635b4325ae5307f705acee3",
          "transactionIndex": "0x9f",
          "logIndex": "0x105",
          "removed": false
        },
        {
          "address": "0xbb4ca8a90058073e0c47ea221db534962eebb9a1",
          "topics": [
            "0xddf252ad1be2c89b69c2b068fc378daa952ba7f163c4a11628f55a4df523b3ef",
            "0x0000000000000000000000000e56b0209400c8b55cd451c0c4ef0cefed34aaeb",
            "0x000000000000000000000000cdcecad649b7fc3ef6d9f09c489bc705ea97f06d"
          ],
          "data": "0x000000000000000000000000000000000000000000000000000000003b9aca00",
          "blockHash": "0x1df7f5267de6c5ad799632e5a77ba927a80e7c4fe3d2e462b738a7b3543a3bf3",
          "blockNumber": "0x839ac5",
          "blockTimestamp": "0x685bba6c",
          "transactionHash": "0x2b0c5798e5314e43163d3af51650ff3edf075e473635b4325ae5307f705acee3",
          "transactionIndex": "0x9f",
          "logIndex": "0x106",
          "removed": false
        },
        {
          "address": "0xcdcecad649b7fc3ef6d9f09c489bc705ea97f06d",
          "topics": [
            "0x5b2d6d293dc78026829f57e43a7f3bde0d53a6ee3047acaab474c44797a69a42",
            "0x0000000000000000000000002abc64b25b760f4a17d6a8c56ea16fc8bf5fa127",
            "0x000000000000000000000000c19973532a44da4fb06fcf53ca5be909fde6788f"
          ],
          "data": "0x00000000000000000000000000000000000000000000000000000000000000200000000000000000000000000000000000000000000000000000000000000012417262697472756d20436f6d6d756e6974790000000000000000000000000000",
          "blockHash": "0x1df7f5267de6c5ad799632e5a77ba927a80e7c4fe3d2e462b738a7b3543a3bf3",
          "blockNumber": "0x839ac5",
          "blockTimestamp": "0x685bba6c",
          "transactionHash": "0x2b0c5798e5314e43163d3af51650ff3edf075e473635b4325ae5307f705acee3",
          "transactionIndex": "0x9f",
          "logIndex": "0x107",
          "removed": false
        },
        {
          "address": "0xcdcecad649b7fc3ef6d9f09c489bc705ea97f06d",
          "topics": [
            "0xc7f505b2f371ae2175ee4913f4499e1f2633a7b5936321eed1cdaeb6115181d2"
          ],
          "data": "0x0000000000000000000000000000000000000000000000000000000000000001",
          "blockHash": "0x1df7f5267de6c5ad799632e5a77ba927a80e7c4fe3d2e462b738a7b3543a3bf3",
          "blockNumber": "0x839ac5",
          "blockTimestamp": "0x685bba6c",
          "transactionHash": "0x2b0c5798e5314e43163d3af51650ff3edf075e473635b4325ae5307f705acee3",
          "transactionIndex": "0x9f",
          "logIndex": "0x108",
          "removed": false
        },
        {
          "address": "0x2abc64b25b760f4a17d6a8c56ea16fc8bf5fa127",
          "topics": [
            "0x64354a8adca46254dbb38db70c062ccdbfb16b62a9c8dad8a4cbee5791ad63ee",
            "0x000000000000000000000000cdcecad649b7fc3ef6d9f09c489bc705ea97f06d"
          ],
          "data": "0x",
          "blockHash": "0x1df7f5267de6c5ad799632e5a77ba927a80e7c4fe3d2e462b738a7b3543a3bf3",
          "blockNumber": "0x839ac5",
          "blockTimestamp": "0x685bba6c",
          "transactionHash": "0x2b0c5798e5314e43163d3af51650ff3edf075e473635b4325ae5307f705acee3",
          "transactionIndex": "0x9f",
          "logIndex": "0x109",
          "removed": false
        },
        {
          "address": "0x0e56b0209400c8b55cd451c0c4ef0cefed34aaeb",
          "topics": [
            "0xd5a2533ccae787571f4de1e33b50f1598d31e90adf0aed5d1bf3e73534571bfa",
            "0x000000000000000000000000cdcecad649b7fc3ef6d9f09c489bc705ea97f06d",
            "0x0000000000000000000000002abc64b25b760f4a17d6a8c56ea16fc8bf5fa127",
            "0x000000000000000000000000c19973532a44da4fb06fcf53ca5be909fde6788f"
          ],
          "data": "0x00000000000000000000000000000000000000000000000000000000000000200000000000000000000000000000000000000000000000000000000000000012417262697472756d20436f6d6d756e6974790000000000000000000000000000",
          "blockHash": "0x1df7f5267de6c5ad799632e5a77ba927a80e7c4fe3d2e462b738a7b3543a3bf3",
          "blockNumber": "0x839ac5",
          "blockTimestamp": "0x685bba6c",
          "transactionHash": "0x2b0c5798e5314e43163d3af51650ff3edf075e473635b4325ae5307f705acee3",
          "transactionIndex": "0x9f",
          "logIndex": "0x10a",
          "removed": false
        }
      ],
      "logsBloom": "0x00000000000000000000000000000000000000000000000000000410000000000000000000000000000000000000001000008004000800000000000000000000000200000000000000000008000000000000001002000000000000000200004000000000000040000000000400000000000000000000000000004010000000000002000000000800000800000000020000000000000080000000000000000000000000000000000000000000400000000000000020000008000001000000001000000002100000000000000000000000000000000004800000000000000000020000000000000000008000001000000000010100100000000200400000000000",
      "type": "0x2",
      "transactionHash": "0x2b0c5798e5314e43163d3af51650ff3edf075e473635b4325ae5307f705acee3",
      "transactionIndex": "0x9f",
      "blockHash": "0x1df7f5267de6c5ad799632e5a77ba927a80e7c4fe3d2e462b738a7b3543a3bf3",
      "blockNumber": "0x839ac5",
      "gasUsed": "0x87490",
      "effectiveGasPrice": "0xc73dd00",
      "from": "0xc19973532a44da4fb06fcf53ca5be909fde6788f",
      "to": "0x0e56b0209400c8b55cd451c0c4ef0cefed34aaeb",
      "contractAddress": null
    },
    {
      "status": "0x1",
      "cumulativeGasUsed": "0x127e7c6",
      "logs": [
        {
          "address": "0xbb4ca8a90058073e0c47ea221db534962eebb9a1",
          "topics": [
            "0x8c5be1e5ebec7d5bd14f71427d1e84f3dd0314c0f7b2291e5b200ac8c7c3b925",
            "0x000000000000000000000000c19973532a44da4fb06fcf53ca5be909fde6788f",
            "0x0000000000000000000000000e56b0209400c8b55cd451c0c4ef0cefed34aaeb"
          ],
          "data": "0x000000000000000000000000000000000000000000000000000000003b9aca00",
          "blockHash": "0x1df7f5267de6c5ad799632e5a77ba927a80e7c4fe3d2e462b738a7b3543a3bf3",
          "blockNumber": "0x839ac5",
          "blockTimestamp": "0x685bba6c",
          "transactionHash": "0xa3c70cdc304c0acf87db728fc5bcdccc0b2b7f1a21b2d4606b87c3a73164352f",
          "transactionIndex": "0xa0",
          "logIndex": "0x10b",
          "removed": false
        }
      ],
      "logsBloom": "0x00000000000000000000000000000000000000000000000000000000000000000000000000000000000000000000000000008000000000000000000000200000000000000000000000000000000000000000000002000000000000000000000000000000000040000000000000000000000000000000000000000000000000000002000000000000000000000000000000000000000000000000000000000000020000000000000000000000400000000000000020000000000000000000000000000000000000000000000000000000000000000000800000000000000000000010000000000000000000000000000000010100000000000000000000000000",
      "type": "0x2",
      "transactionHash": "0xa3c70cdc304c0acf87db728fc5bcdccc0b2b7f1a21b2d4606b87c3a73164352f",
      "transactionIndex": "0xa0",
      "blockHash": "0x1df7f5267de6c5ad799632e5a77ba927a80e7c4fe3d2e462b738a7b3543a3bf3",
      "blockNumber": "0x839ac5",
      "gasUsed": "0xb341",
      "effectiveGasPrice": "0xc73dd00",
      "from": "0xc19973532a44da4fb06fcf53ca5be909fde6788f",
      "to": "0xbb4ca8a90058073e0c47ea221db534962eebb9a1",
      "contractAddress": null
    },
    {
      "status": "0x1",
      "cumulativeGasUsed": "0x1305c4a",
      "logs": [
        {
          "address": "0xbb4ca8a90058073e0c47ea221db534962eebb9a1",
          "topics": [
            "0xddf252ad1be2c89b69c2b068fc378daa952ba7f163c4a11628f55a4df523b3ef",
            "0x000000000000000000000000c19973532a44da4fb06fcf53ca5be909fde6788f",
            "0x0000000000000000000000000e56b0209400c8b55cd451c0c4ef0cefed34aaeb"
          ],
          "data": "0x000000000000000000000000000000000000000000000000000000003b9aca00",
          "blockHash": "0x1df7f5267de6c5ad799632e5a77ba927a80e7c4fe3d2e462b738a7b3543a3bf3",
          "blockNumber": "0x839ac5",
          "blockTimestamp": "0x685bba6c",
          "transactionHash": "0xa52814fb436cd63994ea7b72f9d925cf7935e02d355af62b2c7947db20c5d986",
          "transactionIndex": "0xa1",
          "logIndex": "0x10c",
          "removed": false
        },
        {
          "address": "0xbb4ca8a90058073e0c47ea221db534962eebb9a1",
          "topics": [
            "0xddf252ad1be2c89b69c2b068fc378daa952ba7f163c4a11628f55a4df523b3ef",
            "0x0000000000000000000000000e56b0209400c8b55cd451c0c4ef0cefed34aaeb",
            "0x000000000000000000000000073ae39fe7e83f99b0021260039d023c2b4389b4"
          ],
          "data": "0x000000000000000000000000000000000000000000000000000000003b9aca00",
          "blockHash": "0x1df7f5267de6c5ad799632e5a77ba927a80e7c4fe3d2e462b738a7b3543a3bf3",
          "blockNumber": "0x839ac5",
          "blockTimestamp": "0x685bba6c",
          "transactionHash": "0xa52814fb436cd63994ea7b72f9d925cf7935e02d355af62b2c7947db20c5d986",
          "transactionIndex": "0xa1",
          "logIndex": "0x10d",
          "removed": false
        },
        {
          "address": "0x073ae39fe7e83f99b0021260039d023c2b4389b4",
          "topics": [
            "0x5b2d6d293dc78026829f57e43a7f3bde0d53a6ee3047acaab474c44797a69a42",
            "0x0000000000000000000000002ab14e35eacbf5dbe91e10a23d9869c687d24390",
            "0x000000000000000000000000c19973532a44da4fb06fcf53ca5be909fde6788f"
          ],
          "data": "0x00000000000000000000000000000000000000000000000000000000000000200000000000000000000000000000000000000000000000000000000000000011556e697377617020436f6d6d756e697479000000000000000000000000000000",
          "blockHash": "0x1df7f5267de6c5ad799632e5a77ba927a80e7c4fe3d2e462b738a7b3543a3bf3",
          "blockNumber": "0x839ac5",
          "blockTimestamp": "0x685bba6c",
          "transactionHash": "0xa52814fb436cd63994ea7b72f9d925cf7935e02d355af62b2c7947db20c5d986",
          "transactionIndex": "0xa1",
          "logIndex": "0x10e",
          "removed": false
        },
        {
          "address": "0x073ae39fe7e83f99b0021260039d023c2b4389b4",
          "topics": [
            "0xc7f505b2f371ae2175ee4913f4499e1f2633a7b5936321eed1cdaeb6115181d2"
          ],
          "data": "0x0000000000000000000000000000000000000000000000000000000000000001",
          "blockHash": "0x1df7f5267de6c5ad799632e5a77ba927a80e7c4fe3d2e462b738a7b3543a3bf3",
          "blockNumber": "0x839ac5",
          "blockTimestamp": "0x685bba6c",
          "transactionHash": "0xa52814fb436cd63994ea7b72f9d925cf7935e02d355af62b2c7947db20c5d986",
          "transactionIndex": "0xa1",
          "logIndex": "0x10f",
          "removed": false
        },
        {
          "address": "0x2ab14e35eacbf5dbe91e10a23d9869c687d24390",
          "topics": [
            "0x64354a8adca46254dbb38db70c062ccdbfb16b62a9c8dad8a4cbee5791ad63ee",
            "0x000000000000000000000000073ae39fe7e83f99b0021260039d023c2b4389b4"
          ],
          "data": "0x",
          "blockHash": "0x1df7f5267de6c5ad799632e5a77ba927a80e7c4fe3d2e462b738a7b3543a3bf3",
          "blockNumber": "0x839ac5",
          "blockTimestamp": "0x685bba6c",
          "transactionHash": "0xa52814fb436cd63994ea7b72f9d925cf7935e02d355af62b2c7947db20c5d986",
          "transactionIndex": "0xa1",
          "logIndex": "0x110",
          "removed": false
        },
        {
          "address": "0x0e56b0209400c8b55cd451c0c4ef0cefed34aaeb",
          "topics": [
            "0xd5a2533ccae787571f4de1e33b50f1598d31e90adf0aed5d1bf3e73534571bfa",
            "0x000000000000000000000000073ae39fe7e83f99b0021260039d023c2b4389b4",
            "0x0000000000000000000000002ab14e35eacbf5dbe91e10a23d9869c687d24390",
            "0x000000000000000000000000c19973532a44da4fb06fcf53ca5be909fde6788f"
          ],
          "data": "0x00000000000000000000000000000000000000000000000000000000000000200000000000000000000000000000000000000000000000000000000000000011556e697377617020436f6d6d756e697479000000000000000000000000000000",
          "blockHash": "0x1df7f5267de6c5ad799632e5a77ba927a80e7c4fe3d2e462b738a7b3543a3bf3",
          "blockNumber": "0x839ac5",
          "blockTimestamp": "0x685bba6c",
          "transactionHash": "0xa52814fb436cd63994ea7b72f9d925cf7935e02d355af62b2c7947db20c5d986",
          "transactionIndex": "0xa1",
          "logIndex": "0x111",
          "removed": false
        }
      ],
      "logsBloom": "0x00000000000010000000000000000400000000000200000000000410000000040000000000000000000000010000001000008000000800000000000000000000000200000000000000000408000000000000001002000000000000000000004000000000000040000000000000000000000000000000000000014010000000000002008000000800000800000000000000000000000080000000000000000000000000000000000000000000400000000000000020000000004000000000100000000002100000000000000000004000000000000004800000000000000000020000000000000000000000000000000000010100000000000200000000000000",
      "type": "0x2",
      "transactionHash": "0xa52814fb436cd63994ea7b72f9d925cf7935e02d355af62b2c7947db20c5d986",
      "transactionIndex": "0xa1",
      "blockHash": "0x1df7f5267de6c5ad799632e5a77ba927a80e7c4fe3d2e462b738a7b3543a3bf3",
      "blockNumber": "0x839ac5",
      "gasUsed": "0x87484",
      "effectiveGasPrice": "0xc73dd00",
      "from": "0xc19973532a44da4fb06fcf53ca5be909fde6788f",
      "to": "0x0e56b0209400c8b55cd451c0c4ef0cefed34aaeb",
      "contractAddress": null
    },
    {
      "status": "0x1",
      "cumulativeGasUsed": "0x1310f8b",
      "logs": [
        {
          "address": "0xbb4ca8a90058073e0c47ea221db534962eebb9a1",
          "topics": [
            "0x8c5be1e5ebec7d5bd14f71427d1e84f3dd0314c0f7b2291e5b200ac8c7c3b925",
            "0x000000000000000000000000c19973532a44da4fb06fcf53ca5be909fde6788f",
            "0x0000000000000000000000000e56b0209400c8b55cd451c0c4ef0cefed34aaeb"
          ],
          "data": "0x000000000000000000000000000000000000000000000000000000003b9aca00",
          "blockHash": "0x1df7f5267de6c5ad799632e5a77ba927a80e7c4fe3d2e462b738a7b3543a3bf3",
          "blockNumber": "0x839ac5",
          "blockTimestamp": "0x685bba6c",
          "transactionHash": "0x11004217a32f5f8ca1a5a3150bbed33c24860957aae55830faf54eea59685d0a",
          "transactionIndex": "0xa2",
          "logIndex": "0x112",
          "removed": false
        }
      ],
      "logsBloom": "0x00000000000000000000000000000000000000000000000000000000000000000000000000000000000000000000000000008000000000000000000000200000000000000000000000000000000000000000000002000000000000000000000000000000000040000000000000000000000000000000000000000000000000000002000000000000000000000000000000000000000000000000000000000000020000000000000000000000400000000000000020000000000000000000000000000000000000000000000000000000000000000000800000000000000000000010000000000000000000000000000000010100000000000000000000000000",
      "type": "0x2",
      "transactionHash": "0x11004217a32f5f8ca1a5a3150bbed33c24860957aae55830faf54eea59685d0a",
      "transactionIndex": "0xa2",
      "blockHash": "0x1df7f5267de6c5ad799632e5a77ba927a80e7c4fe3d2e462b738a7b3543a3bf3",
      "blockNumber": "0x839ac5",
      "gasUsed": "0xb341",
      "effectiveGasPrice": "0xc73dd00",
      "from": "0xc19973532a44da4fb06fcf53ca5be909fde6788f",
      "to": "0xbb4ca8a90058073e0c47ea221db534962eebb9a1",
      "contractAddress": null
    },
    {
      "status": "0x1",
      "cumulativeGasUsed": "0x13983eb",
      "logs": [
        {
          "address": "0xbb4ca8a90058073e0c47ea221db534962eebb9a1",
          "topics": [
            "0xddf252ad1be2c89b69c2b068fc378daa952ba7f163c4a11628f55a4df523b3ef",
            "0x000000000000000000000000c19973532a44da4fb06fcf53ca5be909fde6788f",
            "0x0000000000000000000000000e56b0209400c8b55cd451c0c4ef0cefed34aaeb"
          ],
          "data": "0x000000000000000000000000000000000000000000000000000000003b9aca00",
          "blockHash": "0x1df7f5267de6c5ad799632e5a77ba927a80e7c4fe3d2e462b738a7b3543a3bf3",
          "blockNumber": "0x839ac5",
          "blockTimestamp": "0x685bba6c",
          "transactionHash": "0x638e62472864239612f6aa7a1aad3436a7244887483adb6471f56135f3cdade2",
          "transactionIndex": "0xa3",
          "logIndex": "0x113",
          "removed": false
        },
        {
          "address": "0xbb4ca8a90058073e0c47ea221db534962eebb9a1",
          "topics": [
            "0xddf252ad1be2c89b69c2b068fc378daa952ba7f163c4a11628f55a4df523b3ef",
            "0x0000000000000000000000000e56b0209400c8b55cd451c0c4ef0cefed34aaeb",
            "0x000000000000000000000000c60bcf273a173e3509ce1feed74a206350841c28"
          ],
          "data": "0x000000000000000000000000000000000000000000000000000000003b9aca00",
          "blockHash": "0x1df7f5267de6c5ad799632e5a77ba927a80e7c4fe3d2e462b738a7b3543a3bf3",
          "blockNumber": "0x839ac5",
          "blockTimestamp": "0x685bba6c",
          "transactionHash": "0x638e62472864239612f6aa7a1aad3436a7244887483adb6471f56135f3cdade2",
          "transactionIndex": "0xa3",
          "logIndex": "0x114",
          "removed": false
        },
        {
          "address": "0xc60bcf273a173e3509ce1feed74a206350841c28",
          "topics": [
            "0x5b2d6d293dc78026829f57e43a7f3bde0d53a6ee3047acaab474c44797a69a42",
            "0x000000000000000000000000a1261e58fd63548b2787319e3e22aa3ae0d4eeb9",
            "0x000000000000000000000000c19973532a44da4fb06fcf53ca5be909fde6788f"
          ],
          "data": "0x0000000000000000000000000000000000000000000000000000000000000020000000000000000000000000000000000000000000000000000000000000000e4161766520436f6d6d756e697479000000000000000000000000000000000000",
          "blockHash": "0x1df7f5267de6c5ad799632e5a77ba927a80e7c4fe3d2e462b738a7b3543a3bf3",
          "blockNumber": "0x839ac5",
          "blockTimestamp": "0x685bba6c",
          "transactionHash": "0x638e62472864239612f6aa7a1aad3436a7244887483adb6471f56135f3cdade2",
          "transactionIndex": "0xa3",
          "logIndex": "0x115",
          "removed": false
        },
        {
          "address": "0xc60bcf273a173e3509ce1feed74a206350841c28",
          "topics": [
            "0xc7f505b2f371ae2175ee4913f4499e1f2633a7b5936321eed1cdaeb6115181d2"
          ],
          "data": "0x0000000000000000000000000000000000000000000000000000000000000001",
          "blockHash": "0x1df7f5267de6c5ad799632e5a77ba927a80e7c4fe3d2e462b738a7b3543a3bf3",
          "blockNumber": "0x839ac5",
          "blockTimestamp": "0x685bba6c",
          "transactionHash": "0x638e62472864239612f6aa7a1aad3436a7244887483adb6471f56135f3cdade2",
          "transactionIndex": "0xa3",
          "logIndex": "0x116",
          "removed": false
        },
        {
          "address": "0xa1261e58fd63548b2787319e3e22aa3ae0d4eeb9",
          "topics": [
            "0x64354a8adca46254dbb38db70c062ccdbfb16b62a9c8dad8a4cbee5791ad63ee",
            "0x000000000000000000000000c60bcf273a173e3509ce1feed74a206350841c28"
          ],
          "data": "0x",
          "blockHash": "0x1df7f5267de6c5ad799632e5a77ba927a80e7c4fe3d2e462b738a7b3543a3bf3",
          "blockNumber": "0x839ac5",
          "blockTimestamp": "0x685bba6c",
          "transactionHash": "0x638e62472864239612f6aa7a1aad3436a7244887483adb6471f56135f3cdade2",
          "transactionIndex": "0xa3",
          "logIndex": "0x117",
          "removed": false
        },
        {
          "address": "0x0e56b0209400c8b55cd451c0c4ef0cefed34aaeb",
          "topics": [
            "0xd5a2533ccae787571f4de1e33b50f1598d31e90adf0aed5d1bf3e73534571bfa",
            "0x000000000000000000000000c60bcf273a173e3509ce1feed74a206350841c28",
            "0x000000000000000000000000a1261e58fd63548b2787319e3e22aa3ae0d4eeb9",
            "0x000000000000000000000000c19973532a44da4fb06fcf53ca5be909fde6788f"
          ],
          "data": "0x0000000000000000000000000000000000000000000000000000000000000020000000000000000000000000000000000000000000000000000000000000000e4161766520436f6d6d756e697479000000000000000000000000000000000000",
          "blockHash": "0x1df7f5267de6c5ad799632e5a77ba927a80e7c4fe3d2e462b738a7b3543a3bf3",
          "blockNumber": "0x839ac5",
          "blockTimestamp": "0x685bba6c",
          "transactionHash": "0x638e62472864239612f6aa7a1aad3436a7244887483adb6471f56135f3cdade2",
          "transactionIndex": "0xa3",
          "logIndex": "0x118",
          "removed": false
        }
      ],
      "logsBloom": "0x00000020000000001000000000000000000000000000000000000410000000000000000000000000000000000000001000008000000800000000000000000000000200000000000000000008000000000000401002000000800000008000004000000000000040000000000000040000000000000000200000004010000000000002000000000800000800000000000000040000000080000000000000000000000000000000000000000000400000000000000020000000000000000000000000000002100000000000040000000000000000000004800000000100000001020000000000000000000000000000008000010100000000000200000000000000",
      "type": "0x2",
      "transactionHash": "0x638e62472864239612f6aa7a1aad3436a7244887483adb6471f56135f3cdade2",
      "transactionIndex": "0xa3",
      "blockHash": "0x1df7f5267de6c5ad799632e5a77ba927a80e7c4fe3d2e462b738a7b3543a3bf3",
      "blockNumber": "0x839ac5",
      "gasUsed": "0x87460",
      "effectiveGasPrice": "0xc73dd00",
      "from": "0xc19973532a44da4fb06fcf53ca5be909fde6788f",
      "to": "0x0e56b0209400c8b55cd451c0c4ef0cefed34aaeb",
      "contractAddress": null
    },
    {
      "status": "0x1",
      "cumulativeGasUsed": "0x13a372c",
      "logs": [
        {
          "address": "0xbb4ca8a90058073e0c47ea221db534962eebb9a1",
          "topics": [
            "0x8c5be1e5ebec7d5bd14f71427d1e84f3dd0314c0f7b2291e5b200ac8c7c3b925",
            "0x000000000000000000000000c19973532a44da4fb06fcf53ca5be909fde6788f",
            "0x0000000000000000000000000e56b0209400c8b55cd451c0c4ef0cefed34aaeb"
          ],
          "data": "0x000000000000000000000000000000000000000000000000000000003b9aca00",
          "blockHash": "0x1df7f5267de6c5ad799632e5a77ba927a80e7c4fe3d2e462b738a7b3543a3bf3",
          "blockNumber": "0x839ac5",
          "blockTimestamp": "0x685bba6c",
          "transactionHash": "0xeffa66e4112c0e35af3f474aa082ada015499753d0d2e282bfb4ec7d1f1487d8",
          "transactionIndex": "0xa4",
          "logIndex": "0x119",
          "removed": false
        }
      ],
      "logsBloom": "0x00000000000000000000000000000000000000000000000000000000000000000000000000000000000000000000000000008000000000000000000000200000000000000000000000000000000000000000000002000000000000000000000000000000000040000000000000000000000000000000000000000000000000000002000000000000000000000000000000000000000000000000000000000000020000000000000000000000400000000000000020000000000000000000000000000000000000000000000000000000000000000000800000000000000000000010000000000000000000000000000000010100000000000000000000000000",
      "type": "0x2",
      "transactionHash": "0xeffa66e4112c0e35af3f474aa082ada015499753d0d2e282bfb4ec7d1f1487d8",
      "transactionIndex": "0xa4",
      "blockHash": "0x1df7f5267de6c5ad799632e5a77ba927a80e7c4fe3d2e462b738a7b3543a3bf3",
      "blockNumber": "0x839ac5",
      "gasUsed": "0xb341",
      "effectiveGasPrice": "0xc73dd00",
      "from": "0xc19973532a44da4fb06fcf53ca5be909fde6788f",
      "to": "0xbb4ca8a90058073e0c47ea221db534962eebb9a1",
      "contractAddress": null
    },
    {
      "status": "0x1",
      "cumulativeGasUsed": "0x142abb0",
      "logs": [
        {
          "address": "0xbb4ca8a90058073e0c47ea221db534962eebb9a1",
          "topics": [
            "0xddf252ad1be2c89b69c2b068fc378daa952ba7f163c4a11628f55a4df523b3ef",
            "0x000000000000000000000000c19973532a44da4fb06fcf53ca5be909fde6788f",
            "0x0000000000000000000000000e56b0209400c8b55cd451c0c4ef0cefed34aaeb"
          ],
          "data": "0x000000000000000000000000000000000000000000000000000000003b9aca00",
          "blockHash": "0x1df7f5267de6c5ad799632e5a77ba927a80e7c4fe3d2e462b738a7b3543a3bf3",
          "blockNumber": "0x839ac5",
          "blockTimestamp": "0x685bba6c",
          "transactionHash": "0x33d4a9475f112fbbe468f75d6e11cef745fc191e2ed232855e5a3f4dd2d39b0e",
          "transactionIndex": "0xa5",
          "logIndex": "0x11a",
          "removed": false
        },
        {
          "address": "0xbb4ca8a90058073e0c47ea221db534962eebb9a1",
          "topics": [
            "0xddf252ad1be2c89b69c2b068fc378daa952ba7f163c4a11628f55a4df523b3ef",
            "0x0000000000000000000000000e56b0209400c8b55cd451c0c4ef0cefed34aaeb",
            "0x000000000000000000000000265eeb7a1ab0b788b31d4e9a66369bd2a82fc750"
          ],
          "data": "0x000000000000000000000000000000000000000000000000000000003b9aca00",
          "blockHash": "0x1df7f5267de6c5ad799632e5a77ba927a80e7c4fe3d2e462b738a7b3543a3bf3",
          "blockNumber": "0x839ac5",
          "blockTimestamp": "0x685bba6c",
          "transactionHash": "0x33d4a9475f112fbbe468f75d6e11cef745fc191e2ed232855e5a3f4dd2d39b0e",
          "transactionIndex": "0xa5",
          "logIndex": "0x11b",
          "removed": false
        },
        {
          "address": "0x265eeb7a1ab0b788b31d4e9a66369bd2a82fc750",
          "topics": [
            "0x5b2d6d293dc78026829f57e43a7f3bde0d53a6ee3047acaab474c44797a69a42",
            "0x0000000000000000000000006a27ef96fa7e1aeff655d7e13ee38cae7a12b6af",
            "0x000000000000000000000000c19973532a44da4fb06fcf53ca5be909fde6788f"
          ],
          "data": "0x000000000000000000000000000000000000000000000000000000000000002000000000000000000000000000000000000000000000000000000000000000114f70656e53656120436f6d6d756e697479000000000000000000000000000000",
          "blockHash": "0x1df7f5267de6c5ad799632e5a77ba927a80e7c4fe3d2e462b738a7b3543a3bf3",
          "blockNumber": "0x839ac5",
          "blockTimestamp": "0x685bba6c",
          "transactionHash": "0x33d4a9475f112fbbe468f75d6e11cef745fc191e2ed232855e5a3f4dd2d39b0e",
          "transactionIndex": "0xa5",
          "logIndex": "0x11c",
          "removed": false
        },
        {
          "address": "0x265eeb7a1ab0b788b31d4e9a66369bd2a82fc750",
          "topics": [
            "0xc7f505b2f371ae2175ee4913f4499e1f2633a7b5936321eed1cdaeb6115181d2"
          ],
          "data": "0x0000000000000000000000000000000000000000000000000000000000000001",
          "blockHash": "0x1df7f5267de6c5ad799632e5a77ba927a80e7c4fe3d2e462b738a7b3543a3bf3",
          "blockNumber": "0x839ac5",
          "blockTimestamp": "0x685bba6c",
          "transactionHash": "0x33d4a9475f112fbbe468f75d6e11cef745fc191e2ed232855e5a3f4dd2d39b0e",
          "transactionIndex": "0xa5",
          "logIndex": "0x11d",
          "removed": false
        },
        {
          "address": "0x6a27ef96fa7e1aeff655d7e13ee38cae7a12b6af",
          "topics": [
            "0x64354a8adca46254dbb38db70c062ccdbfb16b62a9c8dad8a4cbee5791ad63ee",
            "0x000000000000000000000000265eeb7a1ab0b788b31d4e9a66369bd2a82fc750"
          ],
          "data": "0x",
          "blockHash": "0x1df7f5267de6c5ad799632e5a77ba927a80e7c4fe3d2e462b738a7b3543a3bf3",
          "blockNumber": "0x839ac5",
          "blockTimestamp": "0x685bba6c",
          "transactionHash": "0x33d4a9475f112fbbe468f75d6e11cef745fc191e2ed232855e5a3f4dd2d39b0e",
          "transactionIndex": "0xa5",
          "logIndex": "0x11e",
          "removed": false
        },
        {
          "address": "0x0e56b0209400c8b55cd451c0c4ef0cefed34aaeb",
          "topics": [
            "0xd5a2533ccae787571f4de1e33b50f1598d31e90adf0aed5d1bf3e73534571bfa",
            "0x000000000000000000000000265eeb7a1ab0b788b31d4e9a66369bd2a82fc750",
            "0x0000000000000000000000006a27ef96fa7e1aeff655d7e13ee38cae7a12b6af",
            "0x000000000000000000000000c19973532a44da4fb06fcf53ca5be909fde6788f"
          ],
          "data": "0x000000000000000000000000000000000000000000000000000000000000002000000000000000000000000000000000000000000000000000000000000000114f70656e53656120436f6d6d756e697479000000000000000000000000000000",
          "blockHash": "0x1df7f5267de6c5ad799632e5a77ba927a80e7c4fe3d2e462b738a7b3543a3bf3",
          "blockNumber": "0x839ac5",
          "blockTimestamp": "0x685bba6c",
          "transactionHash": "0x33d4a9475f112fbbe468f75d6e11cef745fc191e2ed232855e5a3f4dd2d39b0e",
          "transactionIndex": "0xa5",
          "logIndex": "0x11f",
          "removed": false
        }
      ],
      "logsBloom": "0x00000000000000000000000000000000000000000000000000000410000000000000000000000000000000000000001000008000000800000000000000000000000200000000000000000008000000000000001002000000000000000000004000000000000040000000000000080000000000000000812002004010000000000082000100000c00000800000000000000000000000080000000000000000000000000000000000000000000400000080000000020000000000000000000000000000002100000000000000000000002000000000004800000000000000000020100000000000000000000000000000000010100000000000200000000080000",
      "type": "0x2",
      "transactionHash": "0x33d4a9475f112fbbe468f75d6e11cef745fc191e2ed232855e5a3f4dd2d39b0e",
      "transactionIndex": "0xa5",
      "blockHash": "0x1df7f5267de6c5ad799632e5a77ba927a80e7c4fe3d2e462b738a7b3543a3bf3",
      "blockNumber": "0x839ac5",
      "gasUsed": "0x87484",
      "effectiveGasPrice": "0xc73dd00",
      "from": "0xc19973532a44da4fb06fcf53ca5be909fde6788f",
      "to": "0x0e56b0209400c8b55cd451c0c4ef0cefed34aaeb",
      "contractAddress": null
    },
    {
      "status": "0x1",
      "cumulativeGasUsed": "0x127c41a",
      "logs": [
        {
          "address": "0xbb4ca8a90058073e0c47ea221db534962eebb9a1",
          "topics": [
            "0x8c5be1e5ebec7d5bd14f71427d1e84f3dd0314c0f7b2291e5b200ac8c7c3b925",
            "0x000000000000000000000000c19973532a44da4fb06fcf53ca5be909fde6788f",
            "0x0000000000000000000000000e56b0209400c8b55cd451c0c4ef0cefed34aaeb"
          ],
          "data": "0x000000000000000000000000000000000000000000000000000000003b9aca00",
          "blockHash": "0x9d08d4d420426a876a022954909855424b009a0a846b38fe76ff96cbbd481616",
          "blockNumber": "0x839ac6",
          "blockTimestamp": "0x685bba78",
          "transactionHash": "0x3f7c8dcb57066a96ea3bdef153be2aca2e28779b479d145c959ce34f21d614cc",
          "transactionIndex": "0xd9",
          "logIndex": "0x141",
          "removed": false
        }
      ],
      "logsBloom": "0x00000000000000000000000000000000000000000000000000000000000000000000000000000000000000000000000000008000000000000000000000200000000000000000000000000000000000000000000002000000000000000000000000000000000040000000000000000000000000000000000000000000000000000002000000000000000000000000000000000000000000000000000000000000020000000000000000000000400000000000000020000000000000000000000000000000000000000000000000000000000000000000800000000000000000000010000000000000000000000000000000010100000000000000000000000000",
      "type": "0x2",
      "transactionHash": "0x3f7c8dcb57066a96ea3bdef153be2aca2e28779b479d145c959ce34f21d614cc",
      "transactionIndex": "0xd9",
      "blockHash": "0x9d08d4d420426a876a022954909855424b009a0a846b38fe76ff96cbbd481616",
      "blockNumber": "0x839ac6",
      "gasUsed": "0xb341",
      "effectiveGasPrice": "0xc2ad646",
      "from": "0xc19973532a44da4fb06fcf53ca5be909fde6788f",
      "to": "0xbb4ca8a90058073e0c47ea221db534962eebb9a1",
      "contractAddress": null
    },
    {
      "status": "0x1",
      "cumulativeGasUsed": "0x13038da",
      "logs": [
        {
          "address": "0xbb4ca8a90058073e0c47ea221db534962eebb9a1",
          "topics": [
            "0xddf252ad1be2c89b69c2b068fc378daa952ba7f163c4a11628f55a4df523b3ef",
            "0x000000000000000000000000c19973532a44da4fb06fcf53ca5be909fde6788f",
            "0x0000000000000000000000000e56b0209400c8b55cd451c0c4ef0cefed34aaeb"
          ],
          "data": "0x000000000000000000000000000000000000000000000000000000003b9aca00",
          "blockHash": "0x9d08d4d420426a876a022954909855424b009a0a846b38fe76ff96cbbd481616",
          "blockNumber": "0x839ac6",
          "blockTimestamp": "0x685bba78",
          "transactionHash": "0x52cf45fa532c216f1a7e15d1cd172c8262972bdc6b183532eb5fd7d25fa41471",
          "transactionIndex": "0xda",
          "logIndex": "0x142",
          "removed": false
        },
        {
          "address": "0xbb4ca8a90058073e0c47ea221db534962eebb9a1",
          "topics": [
            "0xddf252ad1be2c89b69c2b068fc378daa952ba7f163c4a11628f55a4df523b3ef",
            "0x0000000000000000000000000e56b0209400c8b55cd451c0c4ef0cefed34aaeb",
            "0x000000000000000000000000c046ecaa1e899ff466a4b7992467191e5ff101b5"
          ],
          "data": "0x000000000000000000000000000000000000000000000000000000003b9aca00",
          "blockHash": "0x9d08d4d420426a876a022954909855424b009a0a846b38fe76ff96cbbd481616",
          "blockNumber": "0x839ac6",
          "blockTimestamp": "0x685bba78",
          "transactionHash": "0x52cf45fa532c216f1a7e15d1cd172c8262972bdc6b183532eb5fd7d25fa41471",
          "transactionIndex": "0xda",
          "logIndex": "0x143",
          "removed": false
        },
        {
          "address": "0xc046ecaa1e899ff466a4b7992467191e5ff101b5",
          "topics": [
            "0x5b2d6d293dc78026829f57e43a7f3bde0d53a6ee3047acaab474c44797a69a42",
            "0x0000000000000000000000004de3005492b53fbc1ec8477cf7f9eafb12ba965c",
            "0x000000000000000000000000c19973532a44da4fb06fcf53ca5be909fde6788f"
          ],
          "data": "0x000000000000000000000000000000000000000000000000000000000000002000000000000000000000000000000000000000000000000000000000000000174178696520496e66696e69747920436f6d6d756e697479000000000000000000",
          "blockHash": "0x9d08d4d420426a876a022954909855424b009a0a846b38fe76ff96cbbd481616",
          "blockNumber": "0x839ac6",
          "blockTimestamp": "0x685bba78",
          "transactionHash": "0x52cf45fa532c216f1a7e15d1cd172c8262972bdc6b183532eb5fd7d25fa41471",
          "transactionIndex": "0xda",
          "logIndex": "0x144",
          "removed": false
        },
        {
          "address": "0xc046ecaa1e899ff466a4b7992467191e5ff101b5",
          "topics": [
            "0xc7f505b2f371ae2175ee4913f4499e1f2633a7b5936321eed1cdaeb6115181d2"
          ],
          "data": "0x0000000000000000000000000000000000000000000000000000000000000001",
          "blockHash": "0x9d08d4d420426a876a022954909855424b009a0a846b38fe76ff96cbbd481616",
          "blockNumber": "0x839ac6",
          "blockTimestamp": "0x685bba78",
          "transactionHash": "0x52cf45fa532c216f1a7e15d1cd172c8262972bdc6b183532eb5fd7d25fa41471",
          "transactionIndex": "0xda",
          "logIndex": "0x145",
          "removed": false
        },
        {
          "address": "0x4de3005492b53fbc1ec8477cf7f9eafb12ba965c",
          "topics": [
            "0x64354a8adca46254dbb38db70c062ccdbfb16b62a9c8dad8a4cbee5791ad63ee",
            "0x000000000000000000000000c046ecaa1e899ff466a4b7992467191e5ff101b5"
          ],
          "data": "0x",
          "blockHash": "0x9d08d4d420426a876a022954909855424b009a0a846b38fe76ff96cbbd481616",
          "blockNumber": "0x839ac6",
          "blockTimestamp": "0x685bba78",
          "transactionHash": "0x52cf45fa532c216f1a7e15d1cd172c8262972bdc6b183532eb5fd7d25fa41471",
          "transactionIndex": "0xda",
          "logIndex": "0x146",
          "removed": false
        },
        {
          "address": "0x0e56b0209400c8b55cd451c0c4ef0cefed34aaeb",
          "topics": [
            "0xd5a2533ccae787571f4de1e33b50f1598d31e90adf0aed5d1bf3e73534571bfa",
            "0x000000000000000000000000c046ecaa1e899ff466a4b7992467191e5ff101b5",
            "0x0000000000000000000000004de3005492b53fbc1ec8477cf7f9eafb12ba965c",
            "0x000000000000000000000000c19973532a44da4fb06fcf53ca5be909fde6788f"
          ],
          "data": "0x000000000000000000000000000000000000000000000000000000000000002000000000000000000000000000000000000000000000000000000000000000174178696520496e66696e69747920436f6d6d756e697479000000000000000000",
          "blockHash": "0x9d08d4d420426a876a022954909855424b009a0a846b38fe76ff96cbbd481616",
          "blockNumber": "0x839ac6",
          "blockTimestamp": "0x685bba78",
          "transactionHash": "0x52cf45fa532c216f1a7e15d1cd172c8262972bdc6b183532eb5fd7d25fa41471",
          "transactionIndex": "0xda",
          "logIndex": "0x147",
          "removed": false
        }
      ],
      "logsBloom": "0x00000000000002000000000000080000000000000000000000000410000000000000000000000000000000000000001000008000000800000000000000000000000200000000000000000008000000000000001002000000000000000000004000000000001040000000000000000000000000000000000000004010000000000002000000000800000800000000000000000000000080000000000000800000001000000000020000002000400000000000008020000000200000000000000000000002100000000000000080000000000000000004800000000000000000020000000000000000000000000000000000010120000000000200000000000008",
      "type": "0x2",
      "transactionHash": "0x52cf45fa532c216f1a7e15d1cd172c8262972bdc6b183532eb5fd7d25fa41471",
      "transactionIndex": "0xda",
      "blockHash": "0x9d08d4d420426a876a022954909855424b009a0a846b38fe76ff96cbbd481616",
      "blockNumber": "0x839ac6",
      "gasUsed": "0x874c0",
      "effectiveGasPrice": "0xc2ad646",
      "from": "0xc19973532a44da4fb06fcf53ca5be909fde6788f",
      "to": "0x0e56b0209400c8b55cd451c0c4ef0cefed34aaeb",
      "contractAddress": null
    },
    {
      "status": "0x1",
      "cumulativeGasUsed": "0x130ec3f",
      "logs": [
        {
          "address": "0x1c1f6bbeb48b9892f5cc3ab0fdc06bfaaeb2a133",
          "topics": [
            "0x8c5be1e5ebec7d5bd14f71427d1e84f3dd0314c0f7b2291e5b200ac8c7c3b925",
            "0x000000000000000000000000c19973532a44da4fb06fcf53ca5be909fde6788f",
            "0x0000000000000000000000000e56b0209400c8b55cd451c0c4ef0cefed34aaeb"
          ],
          "data": "0x0000000000000000000000000000000000000000000000000de0b6b3a7640000",
          "blockHash": "0x9d08d4d420426a876a022954909855424b009a0a846b38fe76ff96cbbd481616",
          "blockNumber": "0x839ac6",
          "blockTimestamp": "0x685bba78",
          "transactionHash": "0x186591c151db25dfbefc743ed3acc0a153ff2b7b21fc3ee103a0fd6985b44c15",
          "transactionIndex": "0xdb",
          "logIndex": "0x148",
          "removed": false
        }
      ],
      "logsBloom": "0x00000000000000000000000000000000080800000000000000000000000000000000000000000000000000000000000000000000000000000000000000200000000000000000000000000000000000000000000002000000000000000000000000000000000000000000000000000000000000000000000000000000000000000002000000000000000000000000000000000000000000000000000000000000020000000000000000000000400000000000000000000000000000000000000000000000000000000000000000000000000000000000800000000000000000000010000000000000000000000000000080010100000000000000000000000000",
      "type": "0x2",
      "transactionHash": "0x186591c151db25dfbefc743ed3acc0a153ff2b7b21fc3ee103a0fd6985b44c15",
      "transactionIndex": "0xdb",
      "blockHash": "0x9d08d4d420426a876a022954909855424b009a0a846b38fe76ff96cbbd481616",
      "blockNumber": "0x839ac6",
      "gasUsed": "0xb365",
      "effectiveGasPrice": "0xc2ad646",
      "from": "0xc19973532a44da4fb06fcf53ca5be909fde6788f",
      "to": "0x1c1f6bbeb48b9892f5cc3ab0fdc06bfaaeb2a133",
      "contractAddress": null
    },
    {
      "status": "0x1",
      "cumulativeGasUsed": "0x138dc91",
      "logs": [
        {
          "address": "0x1c1f6bbeb48b9892f5cc3ab0fdc06bfaaeb2a133",
          "topics": [
            "0xddf252ad1be2c89b69c2b068fc378daa952ba7f163c4a11628f55a4df523b3ef",
            "0x000000000000000000000000c19973532a44da4fb06fcf53ca5be909fde6788f",
            "0x0000000000000000000000000e56b0209400c8b55cd451c0c4ef0cefed34aaeb"
          ],
          "data": "0x0000000000000000000000000000000000000000000000000de0b6b3a7640000",
          "blockHash": "0x9d08d4d420426a876a022954909855424b009a0a846b38fe76ff96cbbd481616",
          "blockNumber": "0x839ac6",
          "blockTimestamp": "0x685bba78",
          "transactionHash": "0xf66a5ed332863e657dbfc163a38f755c38f7fe43ca68341529ef76a1edcabad4",
          "transactionIndex": "0xdc",
          "logIndex": "0x149",
          "removed": false
        },
        {
          "address": "0x1c1f6bbeb48b9892f5cc3ab0fdc06bfaaeb2a133",
          "topics": [
            "0xddf252ad1be2c89b69c2b068fc378daa952ba7f163c4a11628f55a4df523b3ef",
            "0x0000000000000000000000000e56b0209400c8b55cd451c0c4ef0cefed34aaeb",
            "0x000000000000000000000000b3bea3d0d2d96c4240ed75b105eeff6927ca296a"
          ],
          "data": "0x0000000000000000000000000000000000000000000000000de0b6b3a7640000",
          "blockHash": "0x9d08d4d420426a876a022954909855424b009a0a846b38fe76ff96cbbd481616",
          "blockNumber": "0x839ac6",
          "blockTimestamp": "0x685bba78",
          "transactionHash": "0xf66a5ed332863e657dbfc163a38f755c38f7fe43ca68341529ef76a1edcabad4",
          "transactionIndex": "0xdc",
          "logIndex": "0x14a",
          "removed": false
        },
        {
          "address": "0xb3bea3d0d2d96c4240ed75b105eeff6927ca296a",
          "topics": [
            "0x5b2d6d293dc78026829f57e43a7f3bde0d53a6ee3047acaab474c44797a69a42",
            "0x000000000000000000000000ddc47ecfa3595e8773515e13a5b2264e7c293a7b",
            "0x000000000000000000000000c19973532a44da4fb06fcf53ca5be909fde6788f"
          ],
          "data": "0x0000000000000000000000000000000000000000000000000000000000000020000000000000000000000000000000000000000000000000000000000000001143727970746f20466f756e646174696f6e000000000000000000000000000000",
          "blockHash": "0x9d08d4d420426a876a022954909855424b009a0a846b38fe76ff96cbbd481616",
          "blockNumber": "0x839ac6",
          "blockTimestamp": "0x685bba78",
          "transactionHash": "0xf66a5ed332863e657dbfc163a38f755c38f7fe43ca68341529ef76a1edcabad4",
          "transactionIndex": "0xdc",
          "logIndex": "0x14b",
          "removed": false
        },
        {
          "address": "0xb3bea3d0d2d96c4240ed75b105eeff6927ca296a",
          "topics": [
            "0xc7f505b2f371ae2175ee4913f4499e1f2633a7b5936321eed1cdaeb6115181d2"
          ],
          "data": "0x0000000000000000000000000000000000000000000000000000000000000001",
          "blockHash": "0x9d08d4d420426a876a022954909855424b009a0a846b38fe76ff96cbbd481616",
          "blockNumber": "0x839ac6",
          "blockTimestamp": "0x685bba78",
          "transactionHash": "0xf66a5ed332863e657dbfc163a38f755c38f7fe43ca68341529ef76a1edcabad4",
          "transactionIndex": "0xdc",
          "logIndex": "0x14c",
          "removed": false
        },
        {
          "address": "0xddc47ecfa3595e8773515e13a5b2264e7c293a7b",
          "topics": [
            "0x64354a8adca46254dbb38db70c062ccdbfb16b62a9c8dad8a4cbee5791ad63ee",
            "0x000000000000000000000000b3bea3d0d2d96c4240ed75b105eeff6927ca296a"
          ],
          "data": "0x",
          "blockHash": "0x9d08d4d420426a876a022954909855424b009a0a846b38fe76ff96cbbd481616",
          "blockNumber": "0x839ac6",
          "blockTimestamp": "0x685bba78",
          "transactionHash": "0xf66a5ed332863e657dbfc163a38f755c38f7fe43ca68341529ef76a1edcabad4",
          "transactionIndex": "0xdc",
          "logIndex": "0x14d",
          "removed": false
        },
        {
          "address": "0x0e56b0209400c8b55cd451c0c4ef0cefed34aaeb",
          "topics": [
            "0xd5a2533ccae787571f4de1e33b50f1598d31e90adf0aed5d1bf3e73534571bfa",
            "0x000000000000000000000000b3bea3d0d2d96c4240ed75b105eeff6927ca296a",
            "0x000000000000000000000000ddc47ecfa3595e8773515e13a5b2264e7c293a7b",
            "0x000000000000000000000000c19973532a44da4fb06fcf53ca5be909fde6788f"
          ],
          "data": "0x0000000000000000000000000000000000000000000000000000000000000020000000000000000000000000000000000000000000000000000000000000001143727970746f20466f756e646174696f6e000000000000000000000000000000",
          "blockHash": "0x9d08d4d420426a876a022954909855424b009a0a846b38fe76ff96cbbd481616",
          "blockNumber": "0x839ac6",
          "blockTimestamp": "0x685bba78",
          "transactionHash": "0xf66a5ed332863e657dbfc163a38f755c38f7fe43ca68341529ef76a1edcabad4",
          "transactionIndex": "0xdc",
          "logIndex": "0x14e",
          "removed": false
        }
      ],
      "logsBloom": "0x00000000000000000000000000400000080800000000000000000418001000000000000000004000000000000000001000000000000800000000000000000000000200000000000000000008000000000000001002000200000000000000004000000000000001400000000000000000000000000000000002004010000000000002000000000800000800000000000000000000000080000000000002000000000000000000000000000000400000000000000000000000000000000000000000000002100000000001000000000000100000000004800000000000040000020000000000000000000000000000000080010100000000000200000000000000",
      "type": "0x2",
      "transactionHash": "0xf66a5ed332863e657dbfc163a38f755c38f7fe43ca68341529ef76a1edcabad4",
      "transactionIndex": "0xdc",
      "blockHash": "0x9d08d4d420426a876a022954909855424b009a0a846b38fe76ff96cbbd481616",
      "blockNumber": "0x839ac6",
      "gasUsed": "0x7f052",
      "effectiveGasPrice": "0xc2ad646",
      "from": "0xc19973532a44da4fb06fcf53ca5be909fde6788f",
      "to": "0x0e56b0209400c8b55cd451c0c4ef0cefed34aaeb",
      "contractAddress": null
    },
    {
      "status": "0x1",
      "cumulativeGasUsed": "0x1398ff6",
      "logs": [
        {
          "address": "0x1c1f6bbeb48b9892f5cc3ab0fdc06bfaaeb2a133",
          "topics": [
            "0x8c5be1e5ebec7d5bd14f71427d1e84f3dd0314c0f7b2291e5b200ac8c7c3b925",
            "0x000000000000000000000000c19973532a44da4fb06fcf53ca5be909fde6788f",
            "0x0000000000000000000000000e56b0209400c8b55cd451c0c4ef0cefed34aaeb"
          ],
          "data": "0x0000000000000000000000000000000000000000000000000de0b6b3a7640000",
          "blockHash": "0x9d08d4d420426a876a022954909855424b009a0a846b38fe76ff96cbbd481616",
          "blockNumber": "0x839ac6",
          "blockTimestamp": "0x685bba78",
          "transactionHash": "0xa8d46487bcd0a6f1d091b06f818a9bbe861782601a3ea7108a28daa6befef637",
          "transactionIndex": "0xdd",
          "logIndex": "0x14f",
          "removed": false
        }
      ],
      "logsBloom": "0x00000000000000000000000000000000080800000000000000000000000000000000000000000000000000000000000000000000000000000000000000200000000000000000000000000000000000000000000002000000000000000000000000000000000000000000000000000000000000000000000000000000000000000002000000000000000000000000000000000000000000000000000000000000020000000000000000000000400000000000000000000000000000000000000000000000000000000000000000000000000000000000800000000000000000000010000000000000000000000000000080010100000000000000000000000000",
      "type": "0x2",
      "transactionHash": "0xa8d46487bcd0a6f1d091b06f818a9bbe861782601a3ea7108a28daa6befef637",
      "transactionIndex": "0xdd",
      "blockHash": "0x9d08d4d420426a876a022954909855424b009a0a846b38fe76ff96cbbd481616",
      "blockNumber": "0x839ac6",
      "gasUsed": "0xb365",
      "effectiveGasPrice": "0xc2ad646",
      "from": "0xc19973532a44da4fb06fcf53ca5be909fde6788f",
      "to": "0x1c1f6bbeb48b9892f5cc3ab0fdc06bfaaeb2a133",
      "contractAddress": null
    },
    {
      "status": "0x1",
      "cumulativeGasUsed": "0x1418048",
      "logs": [
        {
          "address": "0x1c1f6bbeb48b9892f5cc3ab0fdc06bfaaeb2a133",
          "topics": [
            "0xddf252ad1be2c89b69c2b068fc378daa952ba7f163c4a11628f55a4df523b3ef",
            "0x000000000000000000000000c19973532a44da4fb06fcf53ca5be909fde6788f",
            "0x0000000000000000000000000e56b0209400c8b55cd451c0c4ef0cefed34aaeb"
          ],
          "data": "0x0000000000000000000000000000000000000000000000000de0b6b3a7640000",
          "blockHash": "0x9d08d4d420426a876a022954909855424b009a0a846b38fe76ff96cbbd481616",
          "blockNumber": "0x839ac6",
          "blockTimestamp": "0x685bba78",
          "transactionHash": "0xab5dbd4d39bd2dd8713f4906644333b045cddf832fedcc07aa33939a7d6332db",
          "transactionIndex": "0xde",
          "logIndex": "0x150",
          "removed": false
        },
        {
          "address": "0x1c1f6bbeb48b9892f5cc3ab0fdc06bfaaeb2a133",
          "topics": [
            "0xddf252ad1be2c89b69c2b068fc378daa952ba7f163c4a11628f55a4df523b3ef",
            "0x0000000000000000000000000e56b0209400c8b55cd451c0c4ef0cefed34aaeb",
            "0x00000000000000000000000041ea72747da14143bf23524c96e4e9d3241e38d9"
          ],
          "data": "0x0000000000000000000000000000000000000000000000000de0b6b3a7640000",
          "blockHash": "0x9d08d4d420426a876a022954909855424b009a0a846b38fe76ff96cbbd481616",
          "blockNumber": "0x839ac6",
          "blockTimestamp": "0x685bba78",
          "transactionHash": "0xab5dbd4d39bd2dd8713f4906644333b045cddf832fedcc07aa33939a7d6332db",
          "transactionIndex": "0xde",
          "logIndex": "0x151",
          "removed": false
        },
        {
          "address": "0x41ea72747da14143bf23524c96e4e9d3241e38d9",
          "topics": [
            "0x5b2d6d293dc78026829f57e43a7f3bde0d53a6ee3047acaab474c44797a69a42",
            "0x000000000000000000000000908dc8d19a5aeb728217688fb940255150662db3",
            "0x000000000000000000000000c19973532a44da4fb06fcf53ca5be909fde6788f"
          ],
          "data": "0x0000000000000000000000000000000000000000000000000000000000000020000000000000000000000000000000000000000000000000000000000000001143727970746f20466f756e646174696f6e000000000000000000000000000000",
          "blockHash": "0x9d08d4d420426a876a022954909855424b009a0a846b38fe76ff96cbbd481616",
          "blockNumber": "0x839ac6",
          "blockTimestamp": "0x685bba78",
          "transactionHash": "0xab5dbd4d39bd2dd8713f4906644333b045cddf832fedcc07aa33939a7d6332db",
          "transactionIndex": "0xde",
          "logIndex": "0x152",
          "removed": false
        },
        {
          "address": "0x41ea72747da14143bf23524c96e4e9d3241e38d9",
          "topics": [
            "0xc7f505b2f371ae2175ee4913f4499e1f2633a7b5936321eed1cdaeb6115181d2"
          ],
          "data": "0x0000000000000000000000000000000000000000000000000000000000000001",
          "blockHash": "0x9d08d4d420426a876a022954909855424b009a0a846b38fe76ff96cbbd481616",
          "blockNumber": "0x839ac6",
          "blockTimestamp": "0x685bba78",
          "transactionHash": "0xab5dbd4d39bd2dd8713f4906644333b045cddf832fedcc07aa33939a7d6332db",
          "transactionIndex": "0xde",
          "logIndex": "0x153",
          "removed": false
        },
        {
          "address": "0x908dc8d19a5aeb728217688fb940255150662db3",
          "topics": [
            "0x64354a8adca46254dbb38db70c062ccdbfb16b62a9c8dad8a4cbee5791ad63ee",
            "0x00000000000000000000000041ea72747da14143bf23524c96e4e9d3241e38d9"
          ],
          "data": "0x",
          "blockHash": "0x9d08d4d420426a876a022954909855424b009a0a846b38fe76ff96cbbd481616",
          "blockNumber": "0x839ac6",
          "blockTimestamp": "0x685bba78",
          "transactionHash": "0xab5dbd4d39bd2dd8713f4906644333b045cddf832fedcc07aa33939a7d6332db",
          "transactionIndex": "0xde",
          "logIndex": "0x154",
          "removed": false
        },
        {
          "address": "0x0e56b0209400c8b55cd451c0c4ef0cefed34aaeb",
          "topics": [
            "0xd5a2533ccae787571f4de1e33b50f1598d31e90adf0aed5d1bf3e73534571bfa",
            "0x00000000000000000000000041ea72747da14143bf23524c96e4e9d3241e38d9",
            "0x000000000000000000000000908dc8d19a5aeb728217688fb940255150662db3",
            "0x000000000000000000000000c19973532a44da4fb06fcf53ca5be909fde6788f"
          ],
          "data": "0x0000000000000000000000000000000000000000000000000000000000000020000000000000000000000000000000000000000000000000000000000000001143727970746f20466f756e646174696f6e000000000000000000000000000000",
          "blockHash": "0x9d08d4d420426a876a022954909855424b009a0a846b38fe76ff96cbbd481616",
          "blockNumber": "0x839ac6",
          "blockTimestamp": "0x685bba78",
          "transactionHash": "0xab5dbd4d39bd2dd8713f4906644333b045cddf832fedcc07aa33939a7d6332db",
          "transactionIndex": "0xde",
          "logIndex": "0x155",
          "removed": false
        }
      ],
      "logsBloom": "0x0000000000000000004000000000000008080000000000000000041000000000000000000000000000000000000000100000000000080800000000000000000000020000000000000000000800000000000000100200000000000000000000400000000000000000000000000000000000000000000000000000401000080000000200000010080000080000000002000000000000408000000000000000000000010000000000000000000040000000000000000000080000000000000000002000000a100000000000200000000000000000000004800000000000000000020000000000000000000000000000000080010100000000004200000000000000",
      "type": "0x2",
      "transactionHash": "0xab5dbd4d39bd2dd8713f4906644333b045cddf832fedcc07aa33939a7d6332db",
      "transactionIndex": "0xde",
      "blockHash": "0x9d08d4d420426a876a022954909855424b009a0a846b38fe76ff96cbbd481616",
      "blockNumber": "0x839ac6",
      "gasUsed": "0x7f052",
      "effectiveGasPrice": "0xc2ad646",
      "from": "0xc19973532a44da4fb06fcf53ca5be909fde6788f",
      "to": "0x0e56b0209400c8b55cd451c0c4ef0cefed34aaeb",
      "contractAddress": null
    }
  ],
  "libraries": [],
  "pending": [],
  "returns": {},
  "timestamp": 1750841977,
  "chain": 11155111,
  "commit": "a8ffade"
}